:020000040000FA
:1020000038EF27F00054656D703A2025302E326687
:1020100043003078257800696E66006E616E0000BE
:10202000FFFFFFFFFFFFFFFFFFFFFFFFFFFFFFFFC0
:10203000FFFFFFFFFFFFFFFFFFFFFFFFFFFFFFFFB0
:104A8000FFFFFFFFFFFFFFFFFFFFFFFFFFFFFFFF36
:104A9000FFFFFFFFFFFFFFFFFFFFFFFFFFFFFFFF26
:104AA000FFFFFFFFFFFFFFFFFFFFFFFFFFFFFFFF16
:104AB000FFFFFFFFFFFFFFFFFFFFFFFF12004FECB5
:104AC00026F06BEC25F01200000E74EC25F0010EC0
:104AD00074EC25F01200720ED36E000ED26E000E32
:104AE0009B6E000EB56E1200036E8A900350F8ECB8
:104AF00027F08A84150E026EC60EE82EFED7022E0F
:104B0000FCD700D08A94120001500302F3CF05F0C5
:104B1000F4CF06F001500402F350062602500302BF
:104B2000F350062605C001F006C002F01200929074
:104B30008990040EE82EFED792800D0EE82EFED747
:104B400000F0000E80B0010E016E460EE82EFED77A
:104B500000D001501200D00E0124036EFF0E02207F
:104B6000046E04500AE10A0E035CD8A0BAEF25F0E7
:104B7000BDEF25F0010EBEEF25F0000E016E026ABA
:104B80001200550E6FEC26F0000E066E065004243F
:104B9000D96E000E0520DA6EDF506FEC26F0062A83
:104BA000070E0664D6EF25F0D8EF25F0C6EF25F006
:104BB0001200046E04500F0B026E0450F00B036ED3
:104BC0008A8003380F0BF8EC27F08A84350EE82E24
:104BD000FED700F08A940250F8EC27F08A84350E54
:104BE000E82EFED700F08A94120001500210031044
:104BF0000410D8B4FEEF25F000EF26F008EF26F001
:104C0000000E011A000E021A000E031A800E041A7A
:104C100001C001F002C002F003C003F004C004F0C0
:104C20001200000E026E010E036E25EF26F097ECC7
:104C300025F00009D8B41FEF26F021EF26F023EF6E
:104C400026F003500212D89003360350D8A42BEF5D
:104C500026F02DEF26F017EF26F002501200000E7E
:104C6000086E000E076E40EF26F007500524D96E3F
:104C700008500620DA6EDF50D9EC25F0074A082AE2
:104C800007500524D96E08500620DA6EDF50D8A4EC
:104C90004CEF26F04EEF26F035EF26F01200000E16
:104CA0008D6E000E8C6E000E896E000E8A6E000EE8
:104CB0008B6E070E966E9268800E936EC70E946E82
:104CC00095680F015E69C40E5D6F3F0E5C6F070E45
:104CD0005F6F2E0E5B6F000E856EF18E1200026EFE
:104CE000010E036E84EF26F0035002140009D8A4CD
:104CF0007CEF26F07FEF26F0010E80EF26F0000E0D
:104D0000AFEC26F0D89003360350D8A48AEF26F0F3
:104D10008CEF26F074EF26F092808990120003C089
:104D200005F004C006F001C007F002C008F005C09D
:104D3000F6FF06C0F7FF054A062A07C0D9FF08C0DC
:104D4000DAFF074A082A0800F5CFDFFFDF50D8A4B2
:104D5000ACEF26F0AEEF26F097EF26F01200016ED2
:104D600001A0B5EF26F0B7EF26F0C4EF26F089904A
:104D700092900D0EE82EFED700F08980490EE82EA5
:104D8000FED700F0CFEF26F089909290560EE82ED5
:104D9000FED700D08980060EE82EFED700D0120084
:104DA000000E106E000E0F6EE1EF26F00EC001F047
:104DB000026A0CC003F00DC004F094EC29F00F4A15
:104DC000102A0F500A24D96E10500B20DA6EDF50D3
:104DD0000E6E0E50D8A4EFEF26F0F1EF26F0D6EFCE
:104DE00026F01200010E056E200E01180210D8B434
:104DF000FCEF26F0FEEF26F011EF27F0F70E01246E
:104E0000036EFF0E0220046E045009E1050E035CE0
:104E1000D8A00DEF27F00FEF27F011EF27F0000ECD
:104E2000056E05C001F0026A1200000E1E1A000E87
:104E30001F1A000E201A800E211A1AC001F01BC082
:104E400002F01CC003F01DC004F01EC005F01FC01E
:104E500006F020C007F021C008F0EEEC37F001C0EA
:104E60001AF002C01BF003C01CF004C01DF01200B9
:104E7000F00EF66E540EF76E000EF86E02EE00F0B5
:104E800011EE00F00900F5CFEEFFE550E150FAE138
:104E9000E250F8E101EE00F0500EEE6AE806FDE1A6
:104EA00000EEE2F0180EEE6AE806FDE1000EF86E84
:104EB000000186EF30F0000E0001F96F000EF76F71
:104EC000000EF86F000E026E070E016EE20E012456
:104ED000D96E000E0220DA6E000EDF6E0150021055
:104EE000D8A475EF27F077EF27F079EF27F07EEF62
:104EF00027F00106D8A0020666EF27F0120003C0D3
:104F000009F004C00AF001C007F002C008F099EFF0
:104F100027F009C0D9FF0AC0DAFFDF500B6E094A3B
:104F20000A2A07C0D9FF08C0DAFF0BC0DFFF074A13
:104F3000082A0506D8A00606052806E10628D8A4F2
:104F4000A4EF27F0A6EF27F089EF27F012008EC01C
:104F50005CF08FC05DF0BBEF27F08CC045F08DC0DA
:104F600046F05C0E476E000E486E90C049F091C04E
:104F70004AF0B6EC35F05CC0F6FF5DC0F7FF080004
:104F8000F5500009D8A4C7EF27F0C9EF27F0ADEF1F
:104F900027F0000E00018D6F000E8C6F1200960E30
:104FA00000019A6F000E9B6F92C09CF093C09DF021
:104FB000000EA06F000E9F6F000EA66F000EA56F73
:104FC0009C0E8C6F000E8D6F94C08EF095C08FF08C
:104FD0009A0E906F000E916FA7EC27F000019F5181
:104FE0009225D96EA0519321DA6E000EDF6E120069
:104FF000016E01A0FEEF27F000EF28F003EF28F08C
:105000008A8604EF28F08A9601A209EF28F00BEFB8
:1050100028F00EEF28F08A880FEF28F08A9801A474
:1050200014EF28F016EF28F019EF28F08A8A1AEF0B
:1050300028F08A9A01A61FEF28F021EF28F024EF2C
:1050400028F08A8C25EF28F08A9C1200056E050452
:10505000D8A42DEF28F02FEF28F040EF28F00450CF
:105060007F0F086E08380F0B066E08500F0B076E87
:10507000065074EC25F0075074EC25F058EF28F03A
:10508000020E0518D8A447EF28F049EF28F058EF92
:1050900028F00450BF0F086E08380F0B066E08503A
:1050A0000F0B076E065074EC25F0075074EC25F0DA
:1050B000120004BE68EF28F004500310021006E14D
:1050C0000104D8B066EF28F068EF28F083EF28F0ED
:1050D00001C005F002C006F003C007F004C008F0EC
:1050E000051E061E071E081E052A000E06220722A0
:1050F000082205C001F006C002F007C003F008C096
:1051000004F08BEF28F001C001F002C002F003C0F0
:1051100003F004C004F012007D0E036E032E94EF22
:1051200028F0000EBFEF28F000D000D000D000D053
:1051300080A09DEF28F09FEF28F08EEF28F0899057
:105140009290030E016E7D0EE82EFED7012EFCD745
:1051500000F092805D0EE82EFED700F080A0B3EF45
:1051600028F0B6EF28F0010EB7EF28F0000E026E1F
:10517000EA0E00D000D0E82EFCD700D0025012007A
:1051800016BEC5EF28F0C7EF28F0CDEF28F015C008
:105190001AF016C01BF0D1EF28F0000E1B6E000EA7
:1051A0001A6E000E196E000E186EE3EF28F0000E56
:1051B000026E200E016E11C003F012C004F094ECD8
:1051C00029F0184A192A1A50185C1950800A176ECB
:1051D0001B50800A1758D8A0F0EF28F0F2EF28F003
:1051E000D7EF28F013C00AF014C00BF011C00CF078
:1051F00012C00DF0D0EC26F01200680E046EE40E22
:10520000E82EFED7042EFCD700D0000EF8EC27F0D5
:10521000680E046EE40EE82EFED7042EFCD700D0F4
:10522000030E74EC25F01A0E046EF80EE82EFED76D
:10523000042EFCD700D0030E74EC25F03A0E046E59
:10524000230EE82EFED7042EFCD700F0030E74ECDC
:1052500025F0020E74EC25F0020E74EC25F0080E19
:1052600074EC25F0000E74EC25F00C0E74EC25F0B7
:10527000000E74EC25F0060E74EC25F01200000E02
:105280000114096E000E02140A6E800E03140B6ED8
:105290007F0E04140C6E09500A100B100C10D8A4C9
:1052A00054EF29F056EF29F05EEF29F0000E016E61
:1052B000000E026E000E036E000E046E000E05144A
:1052C000096E000E06140A6E800E07140B6E7F0E18
:1052D00008140C6E09500A100B100C10D8A473EFB0
:1052E00029F075EF29F07DEF29F0000E056E000E14
:1052F000066E000E076E000E086E055001180FE1D5
:10530000065002180CE10750031809E10850041870
:10531000D8B48DEF29F08FEF29F092EF29F0D890D3
:1053200093EF29F0D880120003500410D8B49BEFFB
:1053300029F09DEF29F0A6EF29F003500410D8A41E
:10534000A4EF29F0A6EF29F0ABEF29F001505EECB5
:1053500025F0F8EF29F020EE09F00350D92604508B
:10536000DA22DE50DE10D8B4B8EF29F0BAEF29F017
:10537000D5EF29F020EE09F00350D9260450DA22A7
:1053800010EE03F00350E1260450E222DE50E65C0A
:10539000E650800A096EDE50800A0958D8B0D3EF73
:1053A00029F0D5EF29F0F8EF29F020EE03F00350B3
:1053B000D9260450DA22DECF05F0DDCF06F003C097
:1053C000D9FF04C0DAFFDECF07F0DDCF08F00550CB
:1053D0000724D96E06500820DA6E01C0DFFF20EEE8
:1053E00003F00350D9260450DA22DE2A000EDD2213
:1053F0001200EEC00BF0EFC00CF0F0C00DF0F1C0E9
:105400000EF001C00BF002C00CF003C00DF004C0A0
:105410000EF00BC005F00CC006F00DC007F00EC07A
:1054200008F0180E19EF2AF0D89008320732063229
:105430000532E82E14EF2AF00550096E0A6A095069
:105440000A10D8A426EF2AF028EF2AF048EF2AF015
:10545000D8900B34056E0C34066E0D34076E0E3486
:10546000086E0550061007100810D8A43AEF2AF06D
:105470003CEF2AF042EF2AF0000E026E020E016E9F
:1054800077EF2AF0000E026E030E016E77EF2AF01E
:1054900009280A10D8A44FEF2AF051EF2AF073EF31
:1054A0002AF00BC005F00CC006F00DC007F00EC0CE
:1054B00008F0090ED8900536063607360836E82E6D
:1054C0005AEF2AF00550061007100810D8B46BEFF9
:1054D0002AF06EEF2AF0010E6FEF2AF0000E016E37
:1054E000026A77EF2AF0000E026E040E016E1200BF
:1054F000005EBCE2613FDD83C29C7E20A3FD1F41B4
:105500009DC3217FFCA2401E5F01E3BD3E6082DCA3
:10551000237D9FC1421CFEA0E1BF5D0380DE3C6293
:10552000BEE0025CDF81633D7C22C09E1D43A1FF83
:105530004618FAA427799BC584DA3866E5BB590773
:10554000DB856739BAE406581947A5FB7826C49A63
:10555000653BD987045AB8E6A7F91B45C6987A2453
:10556000F8A6441A99C7257B3A6486D85B05E7B943
:105570008CD2306EEDB3510F4E10F2AC2F7193CD33
:10558000114FADF3702ECC92D38D6F31B2EC0E5023
:10559000AFF1134DCE90722C6D33D18F0C52B0EE13
:1055A000326C8ED0530DEFB1F0AE4C1291CF2D7303
:1055B000CA947628ABF517490856B4EA6937D58BF3
:1055C0005709EBB536688AD495CB2977F4AA4816E3
:1055D000E9B7550B88D6346A2B7597C94A14F6A8D3
:1055E000742AC896154BA9F7B6E80A54D7896B35C3
:1055F000000E1A14226E000E1B14236E800E1C1453
:10560000246E7F0E1D14256E2250231024102510A9
:10561000D8A40DEF2BF00FEF2BF017EF2BF0000EAF
:105620001A6E000E1B6E000E1C6E000E1D6E000E1C
:105630001E14226E000E1F14236E800E2014246E82
:105640007F0E2114256E2250231024102510D8A47B
:105650002CEF2BF02EEF2BF036EF2BF0000E1E6E02
:10566000000E1F6E000E206E000E216E1DAE3BEF71
:105670002BF03DEF2BF046EF2BF01A6C1B1ED8B031
:105680001B2A1C1ED8B01C2A800E1D5621AE4BEFC3
:105690002BF04DEF2BF056EF2BF01E6C1F1ED8B0E9
:1056A0001F2A201ED8B0202A800E2156000E1A1A5A
:1056B000000E1B1A000E1C1A800E1D1A000E1E1A58
:1056C000000E1F1A000E201A800E211A1E501A5C9E
:1056D0001F501B5820501C5821501D58D8B073EF34
:1056E0002BF075EF2BF078EF2BF0D89079EF2BF0B3
:1056F000D8801200033404340A6E0A50D8A483EF11
:105700002BF085EF2BF08FEF2BF0000E016E000ECB
:10571000026E000E036E000E046EFCEF2BF001C053
:1057200005F002C006F003C007F004C008F0200E28
:105730009FEF2BF0D8900832073206320532E82E60
:105740009AEF2BF00550096E038EFF0E0116FF0E27
:105750000216FF0E0316000E0416960E0A5E0ABE0F
:10576000B6EF2BF0B4EF2BF0CCEF2BF00A50800A01
:10577000970FD8B0BEEF2BF0C0EF2BF0C2EF2BF09D
:1057800085EF2BF0D89004320332023201320A3E08
:10579000C2EF2BF0E4EF2BF01F0E0A64D2EF2BF0D8
:1057A000D4EF2BF0DCEF2BF085EF2BF0D890013607
:1057B0000236033604360A060A50D8A4E2EF2BF06C
:1057C000E4EF2BF0D6EF2BF00950D8B4EAEF2BF032
:1057D000ECEF2BF0F4EF2BF0041E031E021E016C05
:1057E000000E02220322042201C001F002C002F0D6
:1057F00003C003F004C004F01200000E0F6E000E90
:105800000E6E000E0D6E000E0C6E09EF2CF0074AA6
:10581000082A07C0F6FF08C0F7FF0800F550200A65
:10582000D8B415EF2CF017EF2CF007EF2CF007C0D1
:10583000F6FF08C0F7FF0800F5CF09F0F70E0924BE
:105840000A6E0B6AFF0E0B220B5009E1050E0A5C73
:10585000D8A02DEF2CF02FEF2CF007EF2CF039EF24
:105860002CF0000E0D6E010E0C6E074A082A6EEF2A
:105870002CF007C0F6FF08C0F7FF0800F550096ECE
:105880000A6A0A50000AD8B448EF2CF06EEF2CF0E8
:1058900009502B0AD8B435EF2CF0060AD8B431EFF2
:1058A0002CF06EEF2CF00EC001F00FC002F0000ED5
:1058B000046E0A0E036E84EC25F007C0F6FF08C0E4
:1058C000F7FF0800F550015E000E025A300E012469
:1058D0000E6E000E02200F6E35EF2CF007C0F6FFA3
:1058E00008C0F7FF0800F5CF09F0D00E09240A6EB2
:1058F0000B6AFF0E0B220B5009E10A0E0A5CD8A0BE
:1059000084EF2CF086EF2CF053EF2CF00C500D10A0
:10591000D8A48DEF2CF08FEF2CF09DEF2CF00EC063
:1059200009F00FC00AF0091E0A1E094A0A2A09C016
:1059300007F00AC008F0A1EF2CF00EC007F00FC06E
:1059400008F01200096E0950D8B4A9EF2CF0ABEFA3
:105950002CF0CDEF2CF004BEB2EF2CF0B0EF2CF019
:10596000CDEF2CF001C005F002C006F003C007F037
:1059700004C008F0051E061E071E081E052A000E9C
:1059800006220722082205C00BF006C00CF007C053
:105990000DF008C00EF0D5EF2CF001C00BF002C0E6
:1059A0000CF003C00DF004C00EF001500210031003
:1059B0000410D8A4DEEF2CF0E0EF2CF0EAEF2CF08E
:1059C000000E016E000E026E000E036E000E046EDD
:1059D0007BEF2DF0960E0A6EF4EF2CF00A2AD89089
:1059E0000E320D320C320B32000E0B14056E000E0F
:1059F0000C14066E000E0D14076EFE0E0E14086ECB
:105A00000550061007100810D8A409EF2DF00BEF71
:105A10002DF0EEEF2CF019EF2DF00A2A010E0B26D7
:105A2000000E0C220D220E22D8900E320D320C32B6
:105A30000B32000E0B14056E000E0C14066E000ED9
:105A40000D14076EFF0E0E14086E05500610071099
:105A50000810D8A42EEF2DF030EF2DF00DEF2DF023
:105A600038EF2DF00A06D8900B360C360D360E3670
:105A70000DBE3DEF2DF03FEF2DF047EF2DF0020E64
:105A80000A6045EF2DF047EF2DF032EF2DF00AB010
:105A90004CEF2DF04EEF2DF04FEF2DF00D9ED890E6
:105AA0000A320AC005F0066A076A086A05C008F0EB
:105AB000076A066A056A05500B1206500C12075059
:105AC0000D1208500E120950D8B469EF2DF06BEF8B
:105AD0002DF073EF2DF004BE72EF2DF070EF2DF06E
:105AE00073EF2DF00E8E0BC001F00CC002F00DC054
:105AF00003F00EC004F012000001F5BF82EF2DF09C
:105B000084EF2DF085EF2DF0F693F5BF92EF2DF099
:105B1000F55106E1F405D8B090EF2DF092EF2DF09D
:105B200098EF2DF0000E316E010E306E9CEF2DF0CF
:105B3000F4C030F0F5C031F0F2C032F0F3C033F011
:105B40001EC034F01FC035F020C036F021C037F041
:105B500022C038F023C039F024C03AF025C03BF011
:105B6000000E3D6E4F0E3C6E000E01014F6F14EFA4
:105B70002EF03C06D8A03D0634500F0B3E6E090EA9
:105B80003E64C5EF2DF0C7EF2DF0CFEF2DF0570E8F
:105B90003E242E6E2F6A000E2F22D5EF2DF0300EF0
:105BA0003E242E6E2F6A000E2F222EC03EF0000ED5
:105BB0003C24D96E010E3D20DA6E3EC0DFFF300678
:105BC000D8A031063206D8A0330634C026F035C03E
:105BD00027F036C028F037C029F038C02AF039C085
:105BE0002BF03AC02CF03BC02DF0050E01EF2EF04B
:105BF000D8902D322C322B322A32293228322732B9
:105C00002632E82EF8EF2DF026C034F027C035F00C
:105C100028C036F029C037F02AC038F02BC039F040
:105C20002CC03AF02DC03BF03DBE20EF2EF03D5091
:105C300009E1020E3C5CD8A020EF2EF022EF2EF0FE
:105C400053EF2EF03450351036103710381039100D
:105C50003A103B10D8A42FEF2EF031EF2EF0B9EF11
:105C60002DF031BE3EEF2EF0315006E13004D8B0B9
:105C70003CEF2EF03EEF2EF0B9EF2DF033BE49EFA2
:105C80002EF0335008E13204D8A049EF2EF04BEF4C
:105C90002EF053EF2EF00001F6B351EF2EF053EF3C
:105CA0002EF0B9EF2DF01CC011F01DC012F0000E47
:105CB0003C24136E010E3D20146E32C015F033C02B
:105CC00016F0C0EC28F01200EAC038F0EBC039F052
:105CD000ECC03AF0EDC03BF028C038F029C039F0F4
:105CE0002AC03AF02BC03BF0810E2C6EFF0E2D6EB9
:105CF00038C02EF039C02FF03AC030F03BC031F040
:105D0000180E88EF2EF0D890313230322F322E32EA
:105D1000E82E83EF2EF02E502C24366E000E2D2010
:105D2000376E37BE9DEF2EF0375009E1170E365C07
:105D3000D8A09DEF2EF09FEF2EF0A9EF2EF028C0F7
:105D400028F029C029F02AC02AF02BC02BF06CEFD4
:105D50002FF037BEAEEF2EF0B0EF2EF020EF2FF089
:105D600036C02CF0FF0E2D6EFF0E2E6E7F0E2F6EA6
:105D7000000E306E2C66BFEF2EF0C7EF2EF03034E1
:105D800030322F322E322D322C2EBAEF2EF02DC083
:105D900032F02EC033F02FC034F030C035F0325026
:105DA00038142C6E335039142D6E34503A142E6E34
:105DB00035503B142F6E2C502D102E102F10D8A4C0
:105DC000E4EF2EF0E6EF2EF0E8EF2EF09FEF2EF04E
:105DD00038C02CF039C02DF03AC02EF03BC02FF067
:105DE000200EF8EF2EF0D8902F322E322D322C329A
:105DF000E82EF3EF2EF02C502D102E102F10D8B4CB
:105E000004EF2FF006EF2FF00EEF2FF03250382670
:105E10003350392234503A2235503B22321C2C6EFA
:105E2000331C2D6E341C2E6E351C2F6E2C503816E4
:105E30002D5039162E503A162F503B1664EF2FF086
:105E400038C02CF039C02DF03AC02EF03BC02FF0F6
:105E5000200E30EF2FF0D8902F322E322D322C32F0
:105E6000E82E2BEF2FF02C502D102E102F10D8A431
:105E70003CEF2FF03EEF2FF048EF2FF0000E386E82
:105E8000000E396E000E3A6E000E3B6E64EF2FF07E
:105E9000D89038342C6E39342D6E3A342E6E3B3413
:105EA0002F6E2C502D102E102F10D8B45AEF2FF02B
:105EB0005CEF2FF064EF2FF0000E386E000E396E9D
:105EC000800E3A6EBF0E3B6E38C028F039C029F004
:105ED0003AC02AF03BC02BF01200010E0E6E000EED
:105EE0000A6E000E0F6E010E106E000E086E00019D
:105EF000F751D8A47EEF2FF080EF2FF048EF30F06D
:105F00008CEC28F00009D8A488EF2FF08AEF2FF04E
:105F100094EF2FF0000E0001F96F000EF76F000EE6
:105F2000F86F000E85EF30F0F00E6FEC26F097EC76
:105F300025F0096E97EC25F0076E0904D8A4A3EFAD
:105F40002FF0A5EF2FF0AFEF2FF00704D8A4ABEFA1
:105F50002FF0ADEF2FF0AFEF2FF031EF30F0075013
:105F60000918D8B4B6EF2FF0B8EF2FF0BCEF2FF030
:105F700009C00BF0FBEF2FF00001F9510E5CD8B017
:105F8000C4EF2FF0C6EF2FF0DBEF2FF0E20E0F245F
:105F9000D96EDA6A000EDA22DF5010140009D8A494
:105FA000D4EF2FF0D7EF2FF0010ED8EF2FF0000E27
:105FB0000B6EE7EF2FF0F9510E18D8B4E2EF2FF087
:105FC000E5EF2FF0010EE6EF2FF0000E0B6E0B50F9
:105FD000D8A4EDEF2FF0EFEF2FF0FBEF2FF00EC076
:105FE0000AF0090E0A60F7EF2FF0F9EF2FF0FBEF40
:105FF0002FF00AC0F8F00B04D8A401EF30F003EF43
:1060000030F00DEF30F0E20E0F24D96EDA6A000E98
:10601000DA221050DF1218EF30F01050FF0A066E2F
:10602000E20E0F24D96EDA6A000EDA220650DF166D
:106030000B50AFEC26F00E2AD89010361050D8A492
:1060400024EF30F026EF30F029EF30F00F2A010E68
:10605000106E070E0F642FEF30F031EF30F097EF36
:106060002FF0400E0E6437EF30F039EF30F048EF8C
:1060700030F00AC0F9F00001F951D8A442EF30F035
:1060800044EF30F046EF30F0010EF76F010E086E6E
:106090000850D8B44EEF30F050EF30F059EF30F0F8
:1060A0000001E251D8A457EF30F059EF30F062EF21
:1060B00030F0000E0001F96F000EF76F000EF86F60
:1060C000000E086E000E0D6E000E0C6EE20E0C241B
:1060D000D96E000E0D20DA6E0C500424E16E0D50C6
:1060E0000520E26EDFCFE7FF0C4A0D2A0DBE82EFDE
:1060F00030F00D5009E1080E0C5CD8A082EF30F0B2
:1061000084EF30F066EF30F0085012005FEC25F0BD
:10611000050E5F6E0F0E5E6EF10EE82EFED75E2E40
:10612000FCD75F2EFAD700F0FDEC28F0030E5F6E6F
:10613000080E5E6E770EE82EFED75E2EFCD75F2E21
:10614000FAD700F0C50E046E000E056E6DEC2FF050
:106150000009D8A4AEEF30F0B0EF30F0BFEF30F070
:106160005BEC27F0060E5F6E130E5E6EAE0EE82E31
:10617000FED75E2EFCD75F2EFAD7D2EF31F08CEC33
:1061800028F0C50E046E000E056EC1EC25F0440E1D
:106190006FEC26F0150E5F6E4B0E5E6EBE0EE82E97
:1061A000FED75E2EFCD75F2EFAD700D08CEC28F0FD
:1061B000C50E046E000E056EC1EC25F0BE0E6FEC30
:1061C00026F0000E0001DF6FCD0EDF25D96EDA6AF2
:1061D000000EDA2211EC26F0DF6EBB0E0001926F8A
:1061E000000E936F120E946F200E956FCD0EDF256B
:1061F000D96EDA6A000EDA22DF505E6E5E50966F5C
:10620000976BCFEC27F00001DF2B080EDF650BEF5B
:1062100031F00DEF31F0E4EF30F0CD51CEC05EF053
:106220005F6A5EC05FF05E6A5E10E06F5F50E16FB4
:10623000DD51D8B41EEF31F020EF31F04CEF31F0EA
:10624000E0C05EF0E1C05FF0D8905E365F36D89077
:106250005E365F36D8905E365F365EC0E0F05FC077
:10626000E1F0100ED419D8A438EF31F03AEF31F044
:106270007FEF31F0F00EE0155E6EFF0EE1155F6E00
:10628000D3515E5E000E5F5A0C0E5E24E06F000E6E
:106290005F20E16F7FEF31F0D151600BDE6FDE5197
:1062A000D8A455EF31F057EF31F05FEF31F0F80E31
:1062B000E015E06FFF0EE115E16F7FEF31F0200E8A
:1062C000DE19D8A466EF31F068EF31F070EF31F0ED
:1062D000FC0EE015E06FFF0EE115E16F7FEF31F08E
:1062E000400EDE19D8A477EF31F079EF31F07FEF6F
:1062F00031F0FE0EE015E06FFF0EE115E16FE0C03A
:1063000001F0E1C002F0000E02BEFF0E036E046E4B
:10631000010EA2EC2CF001C00FF002C010F003C07F
:1063200011F004C012F0000E136E000E146E800EF9
:10633000156E410E166ED4EC31F00FC0D9F010C0BE
:10634000DAF011C0DBF012C0DCF0A70E0001926F92
:10635000000E936F050E946F200E956FD9C096F0C6
:10636000DAC097F0DBC098F0DCC099F0CFEC27F0F2
:1063700064EC25F0010E046E010E26EC28F0A70E49
:10638000056E000E066E2FEC26F03D0E5F6EE10EE0
:106390005E6E400EE82EFED75E2EFCD75F2EFAD73B
:1063A000A2EF30F000EF10F01250800B1F6E125071
:1063B0001224266E11AEDFEF31F0E1EF31F0E2EFA3
:1063C00031F026802650D8B4E8EF31F0EAEF31F012
:1063D000FFEF31F02628D8A4F0EF31F0F2EF31F0E2
:1063E000FAEF31F0000E0F6E000E106E000E116EFF
:1063F000000E126E118E000E126E07EF32F0000EBC
:106400000F6E000E106E000E116E000E126E165002
:10641000800B1F1A16501624276E15AE12EF32F09D
:1064200014EF32F015EF32F027802750D8B41BEF6D
:1064300032F01DEF32F032EF32F02728D8A423EFEC
:1064400032F025EF32F02DEF32F0000E136E000E19
:10645000146E000E156E000E166E158E000E166E62
:106460003AEF32F0000E136E000E146E000E156E31
:10647000000E166E1350141015101610D8A443EF0A
:1064800032F045EF32F05DEF32F0000E0F6E000E8D
:10649000106E000E116E000E126E800E11127F0E25
:1064A00012121F5012120FC00FF010C010F011C0C6
:1064B00011F012C012F0A0EF33F02650D8A463EF11
:1064C00032F065EF32F06FEF32F0000E0F6E000E1B
:1064D000106E000E116E000E126EA0EF33F02750FA
:1064E00026C017F0186A175E000E185A7F0E172480
:1064F000206E000E1820216E0FC01BF010C01CF083
:1065000011C01DF012C01EF0000E0F6E000E106EB6
:10651000000E116E000E126E000E226E000E236E23
:10652000000E246E000E256E000E276ED0EF32F0A6
:106530002750D8B49EEF32F0A0EF32F0B7EF32F030
:10654000D8901B361C361D361E36D8900F361036A6
:106550001136123625AEAFEF32F0B1EF32F0B2EFB6
:1065600032F00F80D8902236233624362536135049
:106570001B5C14501C5815501D5816501E58D8A09E
:10658000C4EF32F0C6EF32F0CFEF32F0258C13506B
:106590001B5E14501C5A15501D5A16501E5A272A9D
:1065A000190E2764D6EF32F0D8EF32F098EF32F0C0
:1065B0001B501C101D101E10D8B4E1EF32F0E3EF99
:1065C00032F0FBEF32F02280FBEF32F0D8900F3642
:1065D00010361136123625AEF0EF32F0F2EF32F00F
:1065E000F3EF32F00F80D89022362336243625364A
:1065F0002006D8A0210611AE00EF33F002EF33F0F1
:10660000E6EF32F0000E276E25AE09EF33F00BEF08
:1066100033F02FEF33F0FF0E2214176EFF0E23140A
:10662000186EFF0E2414196E7F0E25141A6E175063
:10663000181019101A10D8B420EF33F022EF33F0ED
:1066400026EF33F0010E276E2FEF33F00FA02BEF64
:1066500033F02DEF33F02FEF33F022EF33F02750EC
:10666000D8B435EF33F037EF33F05BEF33F0010E92
:106670000F26000E10221122122212A042EF33F038
:1066800044EF33F05BEF33F00FC017F010C018F099
:1066900011C019F012C01AF01A341A321932183215
:1066A000173217C00FF018C010F019C011F01AC03F
:1066B00012F0204A212A21BE66EF33F0215008E172
:1066C0002028D8A066EF33F068EF33F073EF33F093
:1066D000000E216E2068000E0F6E000E106E000E70
:1066E000116E000E126E21BE80EF33F0215006E1D4
:1066F0002004D8B07EEF33F080EF33F08EEF33F02C
:10670000000E216E000E206E000E0F6E000E106E39
:10671000000E116E000E126E000E1F6E20C026F0CD
:1067200026A095EF33F097EF33F09AEF33F0118E08
:106730009BEF33F0119ED8902630126E51EF32F05D
:1067400012000450800B0D6E04500424136E03AE2F
:10675000ACEF33F0AEEF33F0AFEF33F01380135004
:10676000D8B4B5EF33F0B7EF33F0CAEF33F01328F6
:10677000D8A4BDEF33F0BFEF33F0C7EF33F0000E16
:10678000016E000E026E000E036E000E046E038E8C
:10679000D2EF33F0000E016E000E026E000E036E9B
:1067A000000E046E0850800B0D1A08500824126E5B
:1067B00007AEDDEF33F0DFEF33F0E0EF33F01280C0
:1067C0001250D8B4E6EF33F0E8EF33F0FBEF33F0DC
:1067D0001228D8A4EEEF33F0F0EF33F0F8EF33F0F7
:1067E000000E056E000E066E000E076E000E086E9F
:1067F000078E03EF34F0000E056E000E066E000EDD
:10680000076E000E086E1250D8B409EF34F00BEF8B
:1068100034F013EF34F01350D8A411EF34F013EF29
:1068200034F01DEF34F0000E016E000E026E000E0B
:10683000036E000E046EB5EF35F007500102F3CF82
:1068400018F0F4CF19F018500E6E0F6A106A116A22
:106850001950146E156A166A176A06500202F3CFB1
:1068600018F0F4CF19F018500E26000E0F22102247
:10687000112219501426000E152216221722055037
:106880000302F3CF18F0F4CF19F018500E26000EC3
:106890000F221022112219501426000E1522162242
:1068A000172210C011F00FC010F00EC00FF00E6ACA
:1068B00005500202F3CF18F0F4CF19F018500E264D
:1068C00019500F22000E1022000E11220650010254
:1068D000F3CF18F0F4CF19F018500E2619500F22EC
:1068E000000E1022000E112210C011F00FC010F087
:1068F0000EC00FF00E6A05500102F3CF18F0F4CF6E
:1069000019F018500E2619500F22000E1022000EFA
:10691000112207500202F3CF18F0F4CF19F01850EB
:10692000142619501522000E1622000E17220650AA
:106930000302F3CF18F0F4CF19F0185014261950B1
:106940001522000E1622000E172207500302F3CF65
:1069500018F0F4CF19F01850096E19500A6E0B6A2E
:106960000C6A0BC00CF00AC00BF009C00AF0096AEF
:10697000095014260A5015220B5016220C501722CB
:106980000EC009F00FC00AF010C00BF011C00CF0DF
:10699000190ED0EF34F0D8900C320B320A32093293
:1069A000E82ECBEF34F0095014260A5015220B5074
:1069B00016220C50172210C011F00FC010F00EC09C
:1069C0000FF00E6A125013C009F00A6A0926000E71
:1069D0000A22820E0924186EFF0E0A20196E06EF95
:1069E00035F0D890143615361636173611AEFBEF43
:1069F00034F0FDEF34F0FEEF34F01480D8900E3612
:106A00000F36103611361806D8A0190616AE0BEF41
:106A100035F00DEF35F0F1EF34F0000E126E11AEDF
:106A200014EF35F016EF35F03AEF35F0FF0E0E1497
:106A3000096EFF0E0F140A6EFF0E10140B6E7F0E00
:106A400011140C6E09500A100B100C10D8B42BEF57
:106A500035F02DEF35F031EF35F0010E126E3AEFD3
:106A600035F014A036EF35F038EF35F03AEF35F069
:106A70002DEF35F01250D8B440EF35F042EF35F03D
:106A800066EF35F0010E1426000E1522162217228D
:106A900017A04DEF35F04FEF35F066EF35F014C02D
:106AA00009F015C00AF016C00BF017C00CF00C343A
:106AB0000C320B320A32093209C014F00AC015F048
:106AC0000BC016F00CC017F0184A192A19BE71EF46
:106AD00035F0195008E11828D8A071EF35F073EFA0
:106AE00035F07DEF35F0000E146E000E156E800E41
:106AF000166E7F0E176EABEF35F019BE8AEF35F0CC
:106B0000195006E11804D8B088EF35F08AEF35F057
:106B100096EF35F0000E146E000E156E000E166E18
:106B2000000E176E000E0D6EABEF35F018C013F0AF
:106B3000FF0E1416FF0E15167F0E1616000E1716F2
:106B400013A0A5EF35F0A7EF35F0A8EF35F0168EBE
:106B5000D8901330176E0D50171214C001F015C0E5
:106B600002F016C003F017C004F0120047C0D9FFAE
:106B700048C0DAFFDECFF6FFDDCFF7FF0800F550A3
:106B8000250AD8A4C6EF35F0C8EF35F0D9EF37F0B5
:106B900047C0D9FF48C0DAFFDE2A000EDD22000E12
:106BA0000001F36F000EF26FF2C0F6F0F469F569C0
:106BB000000E506E000E4F6E09EF36F00001F683A6
:106BC00047C0D9FF48C0DAFFDE2A000EDD2209EFF8
:106BD00036F0000E506E010E4F6E09EF36F047C0D2
:106BE000D9FF48C0DAFFDECFF6FFDDCFF7FF0800A0
:106BF000F5504B6E4C6A4C50000AD8B402EF36F098
:106C0000E9EF35F04B50300AD8B4DEEF35F0E9EF5C
:106C100035F04F505010D8B410EF36F012EF36F078
:106C2000EFEF35F047C0D9FF48C0DAFFDECFF6FFFF
:106C3000DDCFF7FF0800F5502E0AD8A422EF36F07A
:106C400024EF36F092EF36F0000E0001F56F000EE3
:106C5000F46F47C0D9FF48C0DAFFDE2A000EDD22FC
:106C600047C0D9FF48C0DAFFDECFF6FFDDCFF7FF20
:106C70000800F5502A0AD8A440EF36F042EF36F06B
:106C80005FEF36F047C0D9FF48C0DAFFDE2A000EBA
:106C9000DD2249C0D9FF4AC0DAFFDFCF4BF0020E38
:106CA000DE26DFCF4CF0000EDD224BC0D9FF4CC0FA
:106CB000DAFFDECFF4F0DDCFF5F092EF36F047C02B
:106CC000D9FF48C0DAFFDECF07F0DDCF08F0FDECDA
:106CD0002BF007C0F4F008C0F5F076EF36F047C0AF
:106CE000D9FF48C0DAFFDE2A000EDD2247C0D9FFF7
:106CF00048C0DAFFDECFF6FFDDCFF7FF0800F5CFA3
:106D00004BF0D00E4B244C6E4D6AFF0E4D224D5071
:106D100009E10A0E4C5CD8A090EF36F092EF36F005
:106D20006FEF36F047C0D9FF48C0DAFFDECF5AF028
:106D3000DDCF5BF05AC0F6FF5BC0F7FF0800F550EF
:106D4000780AD8A4A6EF36F0A8EF36F004EF37F0B3
:106D500049C0D9FF4AC0DAFFDFCF4BF0020EDE2672
:106D6000DFCF4CF0000EDD224BC0D9FF4CC0DAFF64
:106D7000DECF4DF0DDCF4EF04DC051F04EC052F0A1
:106D8000536A546A556A566A576A586A010E5A24F9
:106D90004B6E000E5B204C6E47C0D9FF48C0DAFF37
:106DA0004BC0DEFF4CC0DDFFEEEF36F045C01CF0FF
:106DB00046C01DF051C01EF052C01FF053C020F05D
:106DC00054C021F055C022F056C023F057C024F023
:106DD00058C025F07CEC2DF0EDEF37F05AC0F6FFEF
:106DE0005BC0F7FF0800F5504B6E4C6A4C50000A30
:106DF000D8B4FDEF36F004EF37F04B50780AD8B432
:106E0000D6EF36F004EF37F047C0D9FF48C0DAFFBD
:106E1000DECF5AF0DDCF5BF05AC0F6FF5BC0F7FF64
:106E20000800F5CF59F021EF37F05A4A5B2A3AEFC4
:106E300037F06C0E596E3AEF37F0000E596E3AEF9C
:106E400037F059504B6E4C6A4C50000AD8B42BEFB7
:106E500037F01DEF37F04B504C0AD8B415EF37F030
:106E60002A0AD8B419EF37F00A0AD8B415EF37F068
:106E70001DEF37F05AC0F6FF5BC0F7FF0800F55072
:106E8000660AD8A446EF37F048EF37F0D0EF37F076
:106E90007EEF37F049C0D9FF4AC0DAFFDFCF4BF0B1
:106EA000040EDE26DFCF4CF0000EDD224BC0D9FFF2
:106EB0004CC0DAFFDECF51F0DECF52F0DECF53F020
:106EC000DECF54F093EF37F049C0D9FF4AC0DAFF64
:106ED000DFCF4BF0040EDE26DFCF4CF0000EDD22BC
:106EE0004BC0D9FF4CC0DAFFDECF51F0DECF52F0FD
:106EF000DECF53F0DECF54F093EF37F059504B6EA6
:106F00004C6A4C50000AD8B488EF37F093EF37F052
:106F10004B504C0AD8B464EF37F0200AD8B44AEF8B
:106F200037F093EF37F0010E5A244B6E000E5B20C2
:106F30004C6E47C0D9FF48C0DAFF4BC0DEFF4CC0E3
:106F4000DDFFBAEF37F045C03CF046C03DF051C020
:106F50003EF052C03FF053C040F054C041F05AC020
:106F6000F6FF5BC0F7FF0800F5CF42F04EEC3AF0B9
:106F7000EDEF37F05AC0F6FF5BC0F7FF0800F550A1
:106F80004B6E4C6A4C50000AD8B4C9EF37F0D0EFC2
:106F900037F04B50660AD8B4A3EF37F0D0EF37F094
:106FA00047C0D9FF48C0DAFFDE2A000EDD22EDEF30
:106FB00037F047C0D9FF48C0DAFFDECFF6FFDDCF9C
:106FC000F7FF0800F550016E026A45C003F046C0A5
:106FD00004F094EC29F0D0EF37F012000450800B4D
:106FE0000D6E045004240F6E03AEF9EF37F0FBEF83
:106FF00037F0FCEF37F00F800F50D8B402EF38F0C5
:1070000004EF38F019EF38F00F28D8A40AEF38F061
:107010000CEF38F014EF38F0000E016E000E026E27
:10702000000E036E000E046E038E000E046E21EF40
:1070300038F0000E016E000E026E000E036E000EA0
:10704000046E0850800B0E6E0D500E18D8B42BEF46
:1070500038F02DEF38F02EEF38F00D8C0850082462
:107060000E6E07AE36EF38F038EF38F039EF38F003
:107070000E800E50D8B43FEF38F041EF38F056EFA5
:1070800038F00E28D8A447EF38F049EF38F051EF28
:1070900038F0000E056E000E066E000E076E000E34
:1070A000086E078E000E086E5EEF38F0000E056E5B
:1070B000000E066E000E076E000E086E0F500E5C7E
:1070C000D8B065EF38F067EF38F08EEF38F00DACE0
:1070D0006CEF38F06EEF38F070EF38F0800E0D1A6C
:1070E0000FC010F00EC00FF010C00EF001C010F075
:1070F00005C001F010C005F002C010F006C002F09B
:1071000010C006F003C010F007C003F010C007F075
:1071100004C010F008C004F010C008F0000E106E9B
:107120000F500EC009F00A6A095E000E0A5A0ABE24
:10713000A3EF38F00A5009E11A0E095CD8A0A3EFBA
:1071400038F0A5EF38F0DCEF38F0015002100310F2
:107150000410D8A4AEEF38F0B1EF38F0010EB2EF62
:1071600038F0000E106E000E016E000E026E000E62
:10717000036E000E046E0EC00FF0E5EF38F010A0A5
:10718000C4EF38F0C6EF38F0CCEF38F0D8901030BC
:107190000109106ECEEF38F0D890103201A0D3EF75
:1071A00038F0D5EF38F0D6EF38F0108E04340432D2
:1071B0000332023201320F2A0E500F5CD8A0E3EFE7
:1071C00038F0E5EF38F0BFEF38F00DBCEAEF38F0FB
:1071D000ECEF38F02CEF39F00F50D8A4F2EF38F084
:1071E000F4EF38F0FEEF38F0000E016E000E026E84
:1071F000000E036E000E046E4DEF3AF005500126AE
:1072000006500222075003220850042204A00BEF6C
:1072100039F00DEF39F0B9EF39F010A012EF39F075
:1072200014EF39F01AEF39F0D89010300109106ED0
:107230001CEF39F0D890103201A021EF39F023EF84
:1072400039F024EF39F0108E043404320332023264
:1072500001320F2AB9EF39F00550015C065002588F
:10726000075003580450800A096E0850800A0958D4
:10727000D8B03DEF39F03FEF39F06AEF39F0015007
:10728000055C096E025006580A6E035007580B6ED3
:10729000045008580C6EFF0E0924016EFF0E0A20E0
:1072A000026EFF0E0B20036EFF0E0C20046E800E8C
:1072B0000D1A106C1050D8A460EF39F062EF39F05D
:1072C00072EF39F0010E0126000E02220322042281
:1072D00072EF39F00550015E0650025A0750035A0A
:1072E0000850045A0150021003100410D8A47BEF78
:1072F00039F07DEF39F0B2EF39F01050D8A483EFB8
:1073000039F085EF39F0B2EF39F0000E016E000E62
:10731000026E000E036E000E046E4DEF3AF0D89030
:10732000013602360336043610AE99EF39F09BEF82
:1073300039F09CEF39F0018010A0A1EF39F0A3EFF4
:1073400039F0A7EF39F0D8801036A9EF39F0D8908E
:1073500010360F50D8B4AFEF39F0B1EF39F0B2EFCB
:1073600039F00F0603AEB7EF39F0B9EF39F08FEF10
:1073700039F0000E0E6E10AEC0EF39F0C2EF39F0EA
:10738000DAEF39F010C009F07F0E0916D8B4CBEF50
:1073900039F0CDEF39F0D1EF39F0010E0E6EDAEFA2
:1073A00039F001A0D6EF39F0D8EF39F0DAEF39F043
:1073B000CDEF39F00E50D8B4E0EF39F0E2EF39F00C
:1073C0000DEF3AF0010E0126000E022203220422E4
:1073D00004A0EDEF39F0EFEF39F00DEF3AF001C016
:1073E00009F002C00AF003C00BF004C00CF00C342A
:1073F0000C320B320A32093209C001F00AC002F025
:107400000BC003F00CC004F00F28D8B40AEF3AF018
:107410000CEF3AF00DEF3AF00F2A0F28D8B413EF23
:107420003AF015EF3AF01DEF3AF00F50D8A41BEFE9
:107430003AF01DEF3AF02FEF3AF0000E016E000E19
:10744000026E000E036E000E046E0F50D8A42BEFD8
:107450003AF02DEF3AF02FEF3AF0000E0D6E0FA03C
:1074600034EF3AF036EF3AF039EF3AF0038E3AEF74
:107470003AF0039ED8900F30046E0DAE42EF3AF012
:1074800044EF3AF045EF3AF0048E01C001F002C03B
:1074900002F003C003F004C004F01200000E00016B
:1074A000816F3EC082F03FC083F040C084F041C095
:1074B00085F085BF60EF3AF05EEF3AF074EF3AF096
:1074C000010E816F82C001F083C002F084C003F01E
:1074D00085C004F0F5EC25F001C082F002C083F015
:1074E00003C084F004C085F0000E0001876F000E19
:1074F000866FF2C071F0F3C072F08151D8B483EF9F
:107500003AF085EF3AF099EF3AF08151D8A48BEF39
:107510003AF08DEF3AF093EF3AF0000E676F2B0ED2
:10752000666F97EF3AF0000E676F2D0E666F66C0BC
:1075300081F082C001F083C002F084C003F085C0F6
:1075400004F0F9EC29F001040210D8A4AAEF3AF0F3
:10755000ACEF3AF0DFEF3AF000018151D8B4B3EF6D
:107560003AF0B5EF3AF0BEEF3AF081C000F17107A2
:10757000D8A07207000E876F010E866F000E862559
:10758000016E010E8721026E170E036E200E046E2F
:107590008FEC26F00001FD0E7127FF0E72233CC018
:1075A00011F03DC012F0000E136E010E146E71C08A
:1075B00015F072C016F0C0EC28F07FEF3FF082C0EB
:1075C00001F083C002F084C003F085C004F0F9EC40
:1075D00029F001500210D8A4F0EF3AF0F2EF3AF09F
:1075E00012EF3BF000018151D8B4F9EF3AF0FBEF14
:1075F0003AF004EF3BF081C000F17107D8A07207A8
:10760000000E876F010E866F000E8625016E010E3B
:107610008721026E1B0E036E200E046E8FEC26F087
:10762000CAEF3AF0000E0001886F000E896F800EDD
:107630008A6F3F0E8B6F000E706F000E6F6F82C0EF
:1076400001F083C002F084C003F085C004F0000E96
:10765000056E000E066E000E076E000E086E3FEC03
:1076600029F0D8B036EF3BF038EF3BF017EF3CF0A5
:1076700045EF3BF073C088F074C089F075C08AF0A4
:1076800076C08BF000016F4B702B88C001F089C071
:1076900002F08AC003F08BC004F0000E056E000EED
:1076A000066E200E076E410E086EA1EC33F001C08D
:1076B00073F002C074F003C075F004C076F00001EE
:1076C0007351825D016E74518359026E75518459F4
:1076D000036E76518559046E59EC28F004BE7CEF98
:1076E0003BF004500310021009E1020E015CD8A027
:1076F0007CEF3BF07EEF3BF03AEF3BF073C01AF0CB
:1077000074C01BF075C01CF076C01DF082C01EF066
:1077100083C01FF084C020F085C021F0F8EC2AF06F
:10772000D8A095EF3BF097EF3BF03AEF3BF000012C
:107730008851825D016E89518359026E8A51845944
:10774000036E8B518559046E59EC28F004BEB6EFD8
:107750003BF004500310021007E1020E015CD8B0A8
:10776000B4EF3BF0B6EF3BF0FEEF3BF088C082F0A9
:1077700089C083F08AC084F08BC085F017EF3CF09D
:1077800088C00FF089C010F08AC011F08BC012F0D1
:10779000000E136E000E146E200E156E410E166E46
:1077A000D4EC31F00FC088F010C089F011C08AF01D
:1077B00012C08BF000016F07D8A070078851825D5E
:1077C000016E89518359026E8A518459036E8B511F
:1077D0008559046E59EC28F004BEFCEF3BF00450D0
:1077E0000310021007E1020E015CD8B0FAEF3BF083
:1077F000FCEF3BF0FEEF3BF0B6EF3BF082C01AF03F
:1078000083C01BF084C01CF085C01DF088C01EF032
:1078100089C01FF08AC020F08BC021F0F8EC2AF05C
:10782000D8A015EF3CF017EF3CF0C0EF3BF042C0A2
:1078300069F069C06AF00001F5BF21EF3CF023EF69
:107840003CF029EF3CF0F4C062F0F5C063F02DEF9E
:107850003CF0000E636F060E626F62C06DF063C095
:107860006EF06D4B6E2B660E6A19D8A43AEF3CF0A1
:107870003CEF3CF05CEF3CF070BF43EF3CF041EF7D
:107880003CF04FEF3CF0000E886F000E896F800EC9
:107890008A6F3F0E8B6F000E706F000E6F6F670E5A
:1078A0006919D8B456EF3CF058EF3CF05CEF3CF06F
:1078B0006F516D2770516E23000E806F000E7F6F29
:1078C00082C077F083C078F084C079F085C07AF008
:1078D00088C073F089C074F08AC075F08BC076F0F0
:1078E000EDEF3CF077C00FF078C010F079C011F0E8
:1078F0007AC012F088C013F089C014F08AC015F065
:107900008BC016F0D4EC31F00FC028F010C029F075
:1079100011C02AF012C02BF064EC2EF028C07BF0CE
:1079200029C07CF02AC07DF02BC07EF07BC001F026
:107930007CC002F07DC003F07EC004F07AEC2BF036
:1079400001C06BF002C06CF077C01AF078C01BF079
:1079500079C01CF07AC01DF07BC005F07CC006F039
:107960007DC007F07EC008F088C001F089C002F039
:107970008AC003F08BC004F0A1EC33F001C01EF00C
:1079800002C01FF003C020F004C021F015EC27F066
:107990001AC077F01BC078F01CC079F01DC07AF0D7
:1079A00088C00FF089C010F08AC011F08BC012F0AF
:1079B000000E136E000E146E200E156E410E166E24
:1079C000D4EC31F00FC088F010C089F011C08AF0FB
:1079D00012C08BF000017F4B802B6D517F5D805179
:1079E000800A436E6E51800A4358D8A0FAEF3CF0EB
:1079F000FCEF3CF072EF3CF088C001F089C002F06F
:107A00008AC003F08BC004F0000E056E000E066EF7
:107A1000A00E076E400E086EA1EC33F001C07BF0A3
:107A200002C07CF003C07DF004C07EF077C01AF085
:107A300078C01BF079C01CF07AC01DF07BC01EF02E
:107A40007CC01FF07DC020F07EC021F0F8EC2AF051
:107A5000D8B02DEF3DF02FEF3DF03AEF3DF0000EA6
:107A600000017B6F000E7C6F000E7D6F000E7E6F3D
:107A700063EF3DF077C001F078C002F079C003F009
:107A80007AC004F07BC005F07CC006F07DC007F032
:107A90007EC008F03FEC29F0D8A051EF3DF053EF45
:107AA0003DF063EF3DF000016BB159EF3DF05BEF4E
:107AB0003DF063EF3DF0000E7B6F000E7C6F000E1B
:107AC0007D6F000E7E6F82C001F083C002F084C023
:107AD00003F085C004F07BC005F07CC006F07DC0DB
:107AE00007F07EC008F0EEEC37F001C077F002C07E
:107AF00078F003C079F004C07AF077C01AF078C04B
:107B00001BF079C01CF07AC01DF0000E056E000E4F
:107B1000066E200E076E410E086E73C001F074C031
:107B200002F075C003F076C004F0A1EC33F001C0A0
:107B30001EF002C01FF003C020F004C021F0F8ECDA
:107B40002AF0D8A0A6EF3DF0A8EF3DF0D1EF3DF030
:107B500000016F4B702B73C001F074C002F075C050
:107B600003F076C004F0000E056E000E066E200EC7
:107B7000076E410E086EA1EC33F001C073F002C035
:107B800074F003C075F004C076F0660E00016A1947
:107B9000D8A4CDEF3DF0CFEF3DF0D1EF3DF06D4BF0
:107BA0006E2B73C088F074C089F075C08AF076C0FF
:107BB0008BF06FC060F070C061F0000E0001686F64
:107BC000000E656F000E646F000E806F000E7F6FF9
:107BD000CFEF3EF077C00FF078C010F079C011F011
:107BE0007AC012F088C013F089C014F08AC015F072
:107BF0008BC016F0D4EC31F00FC028F010C029F083
:107C000011C02AF012C02BF064EC2EF028C07BF0DB
:107C100029C07CF02AC07DF02BC07EF07BC001F033
:107C20007CC002F07DC003F07EC004F07AEC2BF043
:107C300002BE26EF3EF0025007E10A0E015CD8B00A
:107C400024EF3EF026EF3EF036EF3EF07BC001F031
:107C50007CC002F07DC003F07EC004F07AEC2BF013
:107C600001C06BF002C06CF03BEF3EF0000E000173
:107C70006C6F090E6B6F00016851D8A442EF3EF0A3
:107C800044EF3EF06CEF3EF061BF4BEF3EF049EF4A
:107C90003EF06CEF3EF0000E8625D96E010E872176
:107CA000DA6E2E0EDF6E864B872B7107D8A0720717
:107CB000010E686F6CEF3EF0000E8625D96E010E46
:107CC0008721DA6E300EDF6E864B872B7107D8A0C6
:107CD00072076407D8A0650764516511D8A473EFD3
:107CE0003EF075EF3EF05CEF3EF0000E8625D96E5B
:107CF000010E8721DA6E6B51300FDF6E864B872BBA
:107D00007107D8A0720777C01AF078C01BF079C04D
:107D10001CF07AC01DF07BC005F07CC006F07DC071
:107D200007F07EC008F088C001F089C002F08AC068
:107D300003F08BC004F0A1EC33F001C01EF002C0D0
:107D40001FF003C020F004C021F015EC27F01AC08A
:107D500077F01BC078F01CC079F01DC07AF088C0A5
:107D60000FF089C010F08AC011F08BC012F0000E25
:107D7000136E000E146E200E156E410E166ED4ECAE
:107D800031F00FC088F010C089F011C08AF012C025
:107D90008BF000016007D8A061077F4B802B6D51ED
:107DA0007F5D8051800A436E6E51800A4358D8B07F
:107DB000DCEF3EF0DEEF3EF0ECEF3EF087BFEAEFA7
:107DC0003EF0875109E14B0E865DD8A0EAEF3EF008
:107DD000ECEF3EF0EAEF3DF0000E806F4F0E7F6F4C
:107DE000000E7F25D96E010E8021DA6E000EDF6E47
:107DF000000E436E010E446E8651435E8751445A15
:107E00007F514324016E80514420026E000E036EA8
:107E1000010E046E86C005F087C006F07FEC27F0E7
:107E2000000186517F5D866F87518059876F815130
:107E3000D8A41DEF3FF020EF3FF0010E21EF3FF0FF
:107E4000000E7F6F806BF6A328EF3FF02AEF3FF024
:107E500058EF3FF03AEF3FF08607D8A08707000EB3
:107E60008625D96E010E8721DA6E300EDF6E71071E
:107E7000D8A0720771517F5D8051800A436E7251A4
:107E8000800A4358D8B047EF3FF049EF3FF058EF32
:107E90003FF086517F5D8051800A436E8751800A92
:107EA0004358D8A056EF3FF058EF3FF02CEF3FF08B
:107EB0008151D8B45EEF3FF060EF3FF06BEF3FF0E1
:107EC0008607D8A08707000E8625D96E010E872168
:107ED000DA6E81C0DFFF7F51715F8051725B3CC001
:107EE00011F03DC012F0000E8625136E010E8721A1
:107EF000146E71C015F072C016F0C0EC28F01200BC
:020000040030CA
:0400000022285F3C17
:020000040020DA
:08000000090A060D00000000D2
:00000001FF
