:020000040000FA
:102000002BEF27F00054656D703A2025302E326694
:1020100043003078257800696E66006E616E0000BE
:104B0000FFFFFFFFFFFFFFFFFFFFFFFF1200000E91
:104B10008EEC25F0010E8EEC25F01200036E8A90CB
:104B20000350EBEC27F08A843F0E026E550EE82E00
:104B3000FED7022EFCD700F08A9412009290899042
:104B40000C0EE82EFED79280280EE82EFED7000E1F
:104B500080B0010E016ED40EE82EFED70150120077
:104B600001500302F3CF05F0F4CF06F00150040228
:104B7000F350062602500302F350062605C001F04A
:104B800006C002F01200D00E0124036EFF0E0220B8
:104B9000046E04500AE10A0E035CD8A0D2EF25F09F
:104BA000D5EF25F0010ED6EF25F0000E016E026A5A
:104BB0001200550E83EC26F0000E066E06500424FB
:104BC000D96E000E0520DA6EDF5083EC26F0062A3F
:104BD000070E0664EEEF25F0F0EF25F0DEEF25F08E
:104BE0001200046E04500F0B026E0450F00B036EA3
:104BF0008A8003380F0BEBEC27F08A84A00EE82E96
:104C0000FED78A940250EBEC27F08A84A00EE82E9F
:104C1000FED78A9412000150021003100410D8B479
:104C200014EF26F016EF26F01EEF26F0000E011A04
:104C3000000E021A000E031A800E041A01C001F0C1
:104C400002C002F003C003F004C004F01200000E22
:104C5000026E010E036E3BEF26F09EEC25F000097C
:104C6000D8B435EF26F037EF26F039EF26F00350B1
:104C70000212D89003360350D8A441EF26F043EF38
:104C800026F02DEF26F002501200016E01A04BEF2E
:104C900026F04DEF26F058EF26F089909290280EDE
:104CA000E82EFED78980DC0EE82EFED762EF26F0D4
:104CB000899092909C0E00D0E82EFDD78980140E2A
:104CC000E82EFED71200000E086E000E076E74EF7D
:104CD00026F007500524D96E08500620DA6EDF5002
:104CE000F1EC25F0074A082A07500524D96E085030
:104CF0000620DA6EDF50D8A480EF26F082EF26F08F
:104D000069EF26F01200026E010E036E98EF26F096
:104D1000035002140009D8A490EF26F093EF26F078
:104D2000010E94EF26F0000E45EC26F0D8900336E5
:104D30000350D8A49EEF26F0A0EF26F088EF26F0CF
:104D400092808990120003C005F004C006F001C0F3
:104D500007F002C008F005C0F6FF06C0F7FF054ADD
:104D6000062A07C0D9FF08C0DAFF074A082A080048
:104D7000F5CFDFFFDF50D8A4C0EF26F0C2EF26F05A
:104D8000ABEF26F01200000E106E000E0F6ED4EF87
:104D900026F00EC001F0026A0CC003F00DC004F052
:104DA0008FEC29F00F4A102A0F500A24D96E1050A8
:104DB0000B20DA6EDF500E6E0E50D8A4E2EF26F014
:104DC000E4EF26F0C9EF26F01200010E056E200E6A
:104DD00001180210D8B4EFEF26F0F1EF26F004EF3F
:104DE00027F0F70E0124036EFF0E0220046E04501C
:104DF00009E1050E035CD8A000EF27F002EF27F0D1
:104E000004EF27F0000E056E05C001F0026A1200E3
:104E1000000E1E1A000E1F1A000E201A800E211AF4
:104E20001AC001F01BC002F01CC003F01DC004F04A
:104E30001EC005F01FC006F020C007F021C008F01A
:104E4000EEEC37F001C01AF002C01BF003C01CF0FA
:104E500004C01DF01200E60EF66E540EF76E000E42
:104E6000F86E02EE00F011EE00F00900F5CFEEFF53
:104E7000E550E150FAE1E250F8E101EE00F0500EA9
:104E8000EE6AE806FDE100EEE2F0190EEE6AE806D1
:104E9000FDE1000EF86E000181EF30F0000E000120
:104EA000FA6F000EF86F000EF96F000E026E070E1B
:104EB000016EE20E0124D96E000E0220DA6E000EA1
:104EC000DF6E01500210D8A468EF27F06AEF27F0D8
:104ED0006CEF27F071EF27F00106D8A0020659EF1A
:104EE00027F0120003C009F004C00AF001C007F067
:104EF00002C008F08CEF27F009C0D9FF0AC0DAFF22
:104F0000DF500B6E094A0A2A07C0D9FF08C0DAFF32
:104F10000BC0DFFF074A082A0506D8A006060528A9
:104F200006E10628D8A497EF27F099EF27F07CEF49
:104F300027F012008EC05CF08FC05DF0AEEF27F05E
:104F40008CC045F08DC046F05C0E476E000E486E7A
:104F500090C049F091C04AF0B6EC35F05CC0F6FF65
:104F60005DC0F7FF0800F5500009D8A4BAEF27F09C
:104F7000BCEF27F0A0EF27F0000E00018D6F000EB0
:104F80008C6F1200960E00019A6F000E9B6F92C0FC
:104F90009CF093C09DF0000EA06F000E9F6F000E5E
:104FA000A66F000EA56F9C0E8C6F000E8D6F94C0C7
:104FB0008EF095C08FF09A0E906F000E916F9AEC64
:104FC00027F000019F519225D96EA0519321DA6EEE
:104FD000000EDF6E1200016E01A0F1EF27F0F3EF7B
:104FE00027F0F6EF27F08A86F7EF27F08A9601A2DE
:104FF000FCEF27F0FEEF27F001EF28F08A8802EFA0
:1050000028F08A9801A407EF28F009EF28F00CEFA8
:1050100028F08A8A0DEF28F08A9A01A612EF28F06C
:1050200014EF28F017EF28F08A8C18EF28F08A9CEC
:105030001200056E0504D8A420EF28F022EF28F016
:1050400033EF28F004507F0F086E08380F0B066E00
:1050500008500F0B076E06508EEC25F007508EECB3
:1050600025F04BEF28F0020E0518D8A43AEF28F0EF
:105070003CEF28F04BEF28F00450BF0F086E0838C3
:105080000F0B066E08500F0B076E06508EEC25F0C6
:1050900007508EEC25F0120004BE5BEF28F00450A0
:1050A0000310021006E10104D8B059EF28F05BEFBD
:1050B00028F076EF28F001C005F002C006F003C02A
:1050C00007F004C008F0051E061E071E081E052A6C
:1050D000000E06220722082205C001F006C002F0D9
:1050E00007C003F008C004F07EEF28F001C001F013
:1050F00002C002F003C003F004C004F012007D0EF1
:10510000036E032E87EF28F0000EB2EF28F0080E92
:10511000E82EFED780A08FEF28F091EF28F081EFE6
:1051200028F089909290080E016E7A0EE82EFED734
:10513000012EFCD79280A80E00D0E82EFDD780A0CB
:10514000A4EF28F0A7EF28F0010EA8EF28F0000E3A
:10515000026E070E016E620EE82EFED7012EFCD7FE
:1051600000D00250120016BEB8EF28F0BAEF28F0B7
:10517000C0EF28F015C01AF016C01BF0C4EF28F0DD
:10518000000E1B6E000E1A6E000E196E000E186EC9
:10519000D6EF28F0000E026E200E016E11C003F053
:1051A00012C004F08FEC29F0184A192A1A50185C22
:1051B0001950800A176E1B50800A1758D8A0E3EFC9
:1051C00028F0E5EF28F0CAEF28F013C00AF014C069
:1051D0000BF011C00CF012C00DF0C3EC26F0120061
:1051E000020E056E380E046EAD0EE82EFED7042EAC
:1051F000FCD7052EFAD700F0000EEBEC27F0020EDC
:10520000056E380E046EAD0EE82EFED7042EFCD7C8
:10521000052EFAD700F0030E8EEC25F04E0E046E2C
:10522000EB0EE82EFED7042EFCD700F0030E8EEC1A
:1052300025F0AC0E046E6C0EE82EFED7042EFCD7C3
:1052400000D0030E8EEC25F0020E8EEC25F0020E3F
:105250008EEC25F0080E8EEC25F0000E8EEC25F07D
:105260000C0E8EEC25F0000E8EEC25F0060E8EEC6A
:1052700025F01200000E0114096E000E02140A6ED1
:10528000800E03140B6E7F0E04140C6E09500A106E
:105290000B100C10D8A44FEF29F051EF29F059EF63
:1052A00029F0000E016E000E026E000E036E000E5D
:1052B000046E000E0514096E000E06140A6E800EB0
:1052C00007140B6E7F0E08140C6E09500A100B1099
:1052D0000C10D8A46EEF29F070EF29F078EF29F0C8
:1052E000000E056E000E066E000E076E000E086EB4
:1052F000055001180FE1065002180CE10750031881
:1053000009E108500418D8B488EF29F08AEF29F091
:105310008DEF29F0D8908EEF29F0D880120003503D
:105320000410D8B496EF29F098EF29F0A1EF29F0F6
:1053300003500410D8A49FEF29F0A1EF29F0A6EFA5
:1053400029F0015086EC25F0F3EF29F020EE09F06A
:105350000350D9260450DA22DE50DE10D8B4B3EF61
:1053600029F0B5EF29F0D0EF29F020EE09F0035035
:10537000D9260450DA2210EE03F00350E12604503F
:10538000E222DE50E65CE650800A096EDE50800ABA
:105390000958D8B0CEEF29F0D0EF29F0F3EF29F07B
:1053A00020EE03F00350D9260450DA22DECF05F0B8
:1053B000DDCF06F003C0D9FF04C0DAFFDECF07F06F
:1053C000DDCF08F005500724D96E06500820DA6EAC
:1053D00001C0DFFF20EE03F00350D9260450DA228B
:1053E000DE2A000EDD221200EEC00BF0EFC00CF042
:1053F000F0C00DF0F1C00EF001C00BF002C00CF0D7
:1054000003C00DF004C00EF00BC005F00CC006F098
:105410000DC007F00EC008F0180E14EF2AF0D89057
:105420000832073206320532E82E0FEF2AF0055017
:10543000096E0A6A09500A10D8A421EF2AF023EF56
:105440002AF043EF2AF0D8900B34056E0C34066E28
:105450000D34076E0E34086E055006100710081044
:10546000D8A435EF2AF037EF2AF03DEF2AF0000EEE
:10547000026E020E016E72EF2AF0000E026E030E33
:10548000016E72EF2AF009280A10D8A44AEF2AF018
:105490004CEF2AF06EEF2AF00BC005F00CC006F0BE
:1054A0000DC007F00EC008F0090ED890053606367C
:1054B00007360836E82E55EF2AF00550061007107B
:1054C0000810D8B466EF2AF069EF2AF0010E6AEFEF
:1054D0002AF0000E016E026A72EF2AF0000E026ED0
:1054E000040E016E1200005EBCE2613FDD83C29CCF
:1054F0007E20A3FD1F419DC3217FFCA2401E5F01B2
:10550000E3BD3E6082DC237D9FC1421CFEA0E1BF63
:105510005D0380DE3C62BEE0025CDF81633D7C2295
:10552000C09E1D43A1FF4618FAA427799BC584DAC3
:105530003866E5BB5907DB856739BAE40658194771
:10554000A5FB7826C49A653BD987045AB8E6A7F923
:105550001B45C6987A24F8A6441A99C7257B3A6455
:1055600086D85B05E7B98CD2306EEDB3510F4E1083
:10557000F2AC2F7193CD114FADF3702ECC92D38D31
:105580006F31B2EC0E50AFF1134DCE90722C6D33E3
:10559000D18F0C52B0EE326C8ED0530DEFB1F0AE15
:1055A0004C1291CF2D73CA947628ABF51749085643
:1055B000B4EA6937D58B5709EBB536688AD495CBF1
:1055C0002977F4AA4816E9B7550B88D6346A2B75A3
:1055D00097C94A14F6A8742AC896154BA9F7B6E8D5
:1055E0000A54D7896B35000E1A14226E000E1B1454
:1055F000236E800E1C14246E7F0E1D14256E225007
:10560000231024102510D8A408EF2BF00AEF2BF05C
:1056100012EF2BF0000E1A6E000E1B6E000E1C6EA9
:10562000000E1D6E000E1E14226E000E1F14236E3F
:10563000800E2014246E7F0E2114256E225023101C
:1056400024102510D8A427EF2BF029EF2BF031EFF1
:105650002BF0000E1E6E000E1F6E000E206E000E50
:10566000216E1DAE36EF2BF038EF2BF041EF2BF013
:105670001A6C1B1ED8B01B2A1C1ED8B01C2A800E08
:105680001D5621AE46EF2BF048EF2BF051EF2BF0DB
:105690001E6C1F1ED8B01F2A201ED8B0202A800ED4
:1056A0002156000E1A1A000E1B1A000E1C1A800E2C
:1056B0001D1A000E1E1A000E1F1A000E201A800E50
:1056C000211A1E501A5C1F501B5820501C58215084
:1056D0001D58D8B06EEF2BF070EF2BF073EF2BF05E
:1056E000D89074EF2BF0D8801200033404340A6E83
:1056F0000A50D8A47EEF2BF080EF2BF08AEF2BF02E
:10570000000E016E000E026E000E036E000E046E9F
:10571000F7EF2BF001C005F002C006F003C007F060
:1057200004C008F0200E9AEF2BF0D8900832073210
:1057300006320532E82E95EF2BF00550096E038EE8
:10574000FF0E0116FF0E0216FF0E0316000E0416C2
:10575000960E0A5E0ABEB1EF2BF0AFEF2BF0C7EF4B
:105760002BF00A50800A970FD8B0B9EF2BF0BBEF9F
:105770002BF0BDEF2BF080EF2BF0D89004320332EA
:10578000023201320A3EBDEF2BF0DFEF2BF01F0E8D
:105790000A64CDEF2BF0CFEF2BF0D7EF2BF080EF9B
:1057A0002BF0D89001360236033604360A060A502A
:1057B000D8A4DDEF2BF0DFEF2BF0D1EF2BF0095069
:1057C000D8B4E5EF2BF0E7EF2BF0EFEF2BF0041E52
:1057D000031E021E016C000E02220322042201C0DD
:1057E00001F002C002F003C003F004C004F0120094
:1057F000000E0F6E000E0E6E000E0D6E000E0C6E83
:1058000004EF2CF0074A082A07C0F6FF08C0F7FF8C
:105810000800F550200AD8B410EF2CF012EF2CF04D
:1058200002EF2CF007C0F6FF08C0F7FF0800F5CF25
:1058300009F0F70E09240A6E0B6AFF0E0B220B50BB
:1058400009E1050E0A5CD8A028EF2CF02AEF2CF015
:1058500002EF2CF034EF2CF0000E0D6E010E0C6EEA
:10586000074A082A69EF2CF007C0F6FF08C0F7FFC7
:105870000800F550096E0A6A0A50000AD8B443EFCE
:105880002CF069EF2CF009502B0AD8B430EF2CF033
:10589000060AD8B42CEF2CF069EF2CF00EC001F002
:1058A0000FC002F0000E046E0A0E036EB0EC25F07D
:1058B00007C0F6FF08C0F7FF0800F550015E000EB4
:1058C000025A300E01240E6E000E02200F6E30EFD1
:1058D0002CF007C0F6FF08C0F7FF0800F5CF09F06D
:1058E000D00E09240A6E0B6AFF0E0B220B5009E141
:1058F0000A0E0A5CD8A07FEF2CF081EF2CF04EEF5F
:105900002CF00C500D10D8A488EF2CF08AEF2CF05E
:1059100098EF2CF00EC009F00FC00AF0091E0A1E05
:10592000094A0A2A09C007F00AC008F09CEF2CF0C7
:105930000EC007F00FC008F01200096E0950D8B46D
:10594000A4EF2CF0A6EF2CF0C8EF2CF004BEADEFC6
:105950002CF0ABEF2CF0C8EF2CF001C005F002C02A
:1059600006F003C007F004C008F0051E061E071E5F
:10597000081E052A000E06220722082205C00BF089
:1059800006C00CF007C00DF008C00EF0D0EF2CF0F0
:1059900001C00BF002C00CF003C00DF004C00EF00B
:1059A0000150021003100410D8A4D9EF2CF0DBEF43
:1059B0002CF0E5EF2CF0000E016E000E026E000ED2
:1059C000036E000E046E76EF2DF0960E0A6EEFEF6A
:1059D0002CF00A2AD8900E320D320C320B32000E07
:1059E0000B14056E000E0C14066E000E0D14076EDF
:1059F000FE0E0E14086E0550061007100810D8A4ED
:105A000004EF2DF006EF2DF0E9EF2CF014EF2DF060
:105A10000A2A010E0B26000E0C220D220E22D8900F
:105A20000E320D320C320B32000E0B14056E000ECE
:105A30000C14066E000E0D14076EFF0E0E14086E89
:105A40000550061007100810D8A429EF2DF02BEFF1
:105A50002DF008EF2DF033EF2DF00A06D8900B361D
:105A60000C360D360E360DBE38EF2DF03AEF2DF018
:105A700042EF2DF0020E0A6040EF2DF042EF2DF0C4
:105A80002DEF2DF00AB047EF2DF049EF2DF04AEF42
:105A90002DF00D9ED8900A320AC005F0066A076AFA
:105AA000086A05C008F0076A066A056A05500B1205
:105AB00006500C1207500D1208500E120950D8B49F
:105AC00064EF2DF066EF2DF06EEF2DF004BE6DEF5C
:105AD0002DF06BEF2DF06EEF2DF00E8E0BC001F060
:105AE0000CC002F00DC003F00EC004F01200000163
:105AF000F5BF7DEF2DF07FEF2DF080EF2DF0F693C9
:105B0000F5BF8DEF2DF0F55106E1F405D8B08BEF20
:105B10002DF08DEF2DF093EF2DF0000E316E010E74
:105B2000306E97EF2DF0F4C030F0F5C031F0F2C0D8
:105B300032F0F3C033F01EC034F01FC035F020C087
:105B400036F021C037F022C038F023C039F024C02D
:105B50003AF025C03BF0000E3D6E4F0E3C6E000E3D
:105B600001014F6F0FEF2EF03C06D8A03D063450D8
:105B70000F0B3E6E090E3E64C0EF2DF0C2EF2DF00C
:105B8000CAEF2DF0570E3E242E6E2F6A000E2F22E4
:105B9000D0EF2DF0300E3E242E6E2F6A000E2F22F5
:105BA0002EC03EF0000E3C24D96E010E3D20DA6E70
:105BB0003EC0DFFF3006D8A031063206D8A033063B
:105BC00034C026F035C027F036C028F037C029F0A1
:105BD00038C02AF039C02BF03AC02CF03BC02DF071
:105BE000050EFCEF2DF0D8902D322C322B322A32BC
:105BF0002932283227322632E82EF3EF2DF026C044
:105C000034F027C035F028C036F029C037F02AC05C
:105C100038F02BC039F02CC03AF02DC03BF03DBE1F
:105C20001BEF2EF03D5009E1020E3C5CD8A01BEFAB
:105C30002EF01DEF2EF04EEF2EF0345035103610B2
:105C40003710381039103A103B10D8A42AEF2EF034
:105C50002CEF2EF0B4EF2DF031BE39EF2EF0315095
:105C600006E13004D8B037EF2EF039EF2EF0B4EF64
:105C70002DF033BE44EF2EF0335008E13204D8A0AB
:105C800044EF2EF046EF2EF04EEF2EF00001F6B36B
:105C90004CEF2EF04EEF2EF0B4EF2DF01CC011F0B3
:105CA0001DC012F0000E3C24136E010E3D20146E38
:105CB00032C015F033C016F0B3EC28F01200EAC081
:105CC00038F0EBC039F0ECC03AF0EDC03BF028C042
:105CD00038F029C039F02AC03AF02BC03BF0810ED1
:105CE0002C6EFF0E2D6E38C02EF039C02FF03AC04A
:105CF00030F03BC031F0180E83EF2EF0D8903132E7
:105D000030322F322E32E82E7EEF2EF02E502C2401
:105D1000366E000E2D20376E37BE98EF2EF03750BE
:105D200009E1170E365CD8A098EF2EF09AEF2EF00E
:105D3000A4EF2EF028C028F029C029F02AC02AF0AC
:105D40002BC02BF067EF2FF037BEA9EF2EF0ABEF93
:105D50002EF01BEF2FF036C02CF0FF0E2D6EFF0E35
:105D60002E6E7F0E2F6E000E306E2C66BAEF2EF068
:105D7000C2EF2EF0303430322F322E322D322C2E14
:105D8000B5EF2EF02DC032F02EC033F02FC034F01E
:105D900030C035F0325038142C6E335039142D6E1B
:105DA00034503A142E6E35503B142F6E2C502D105B
:105DB0002E102F10D8A4DFEF2EF0E1EF2EF0E3EF3E
:105DC0002EF09AEF2EF038C02CF039C02DF03AC0EA
:105DD0002EF03BC02FF0200EF3EF2EF0D8902F3294
:105DE0002E322D322C32E82EEEEF2EF02C502D10CC
:105DF0002E102F10D8B4FFEF2EF001EF2FF009EF87
:105E00002FF0325038263350392234503A22355050
:105E10003B22321C2C6E331C2D6E341C2E6E351C16
:105E20002F6E2C5038162D5039162E503A162F50F2
:105E30003B165FEF2FF038C02CF039C02DF03AC080
:105E40002EF03BC02FF0200E2BEF2FF0D8902F32EA
:105E50002E322D322C32E82E26EF2FF02C502D1022
:105E60002E102F10D8A437EF2FF039EF2FF043EF7B
:105E70002FF0000E386E000E396E000E3A6E000ED6
:105E80003B6E5FEF2FF0D89038342C6E39342D6E86
:105E90003A342E6E3B342F6E2C502D102E102F10B6
:105EA000D8B455EF2FF057EF2FF05FEF2FF0000E23
:105EB000386E000E396E800E3A6EBF0E3B6E38C0E3
:105EC00028F039C029F03AC02AF03BC02BF012006C
:105ED000010E0E6E000E0A6E000E0F6E010E106E99
:105EE000000E086E0001F851D8A479EF2FF07BEF77
:105EF0002FF043EF30F07FEC28F00009D8A483EFB7
:105F00002FF085EF2FF08FEF2FF0000E0001FA6FCA
:105F1000000EF86F000EF96F000E80EF30F0F00EFB
:105F200083EC26F09EEC25F0096E9EEC25F0076EC2
:105F30000904D8A49EEF2FF0A0EF2FF0AAEF2FF0C6
:105F40000704D8A4A6EF2FF0A8EF2FF0AAEF2FF0A8
:105F50002CEF30F007500918D8B4B1EF2FF0B3EFA1
:105F60002FF0B7EF2FF009C00BF0F6EF2FF0000184
:105F7000FA510E5CD8B0BFEF2FF0C1EF2FF0D6EF83
:105F80002FF0E20E0F24D96EDA6A000EDA22DF500B
:105F900010140009D8A4CFEF2FF0D2EF2FF0010E8C
:105FA000D3EF2FF0000E0B6EE2EF2FF0FA510E1828
:105FB000D8B4DDEF2FF0E0EF2FF0010EE1EF2FF07E
:105FC000000E0B6E0B50D8A4E8EF2FF0EAEF2FF085
:105FD000F6EF2FF00EC00AF0090E0A60F2EF2FF074
:105FE000F4EF2FF0F6EF2FF00AC0F9F00B04D8A46D
:105FF000FCEF2FF0FEEF2FF008EF30F0E20E0F2451
:10600000D96EDA6A000EDA221050DF1213EF30F088
:106010001050FF0A066EE20E0F24D96EDA6A000EE7
:10602000DA220650DF160B5045EC26F00E2AD890E7
:1060300010361050D8A41FEF30F021EF30F024EFCD
:1060400030F00F2A010E106E070E0F642AEF30F0A9
:106050002CEF30F092EF2FF0400E0E6432EF30F064
:1060600034EF30F043EF30F00AC0FAF00001FA519B
:10607000D8A43DEF30F03FEF30F041EF30F0010EAB
:10608000F86F010E086E0850D8B449EF30F04BEFAE
:1060900030F054EF30F00001E251D8A452EF30F06C
:1060A00054EF30F05DEF30F0000E0001FA6F000E9B
:1060B000F86F000EF96F000E086E000E0D6E000EE8
:1060C0000C6EE20E0C24D96E000E0D20DA6E0C5010
:1060D0000424E16E0D500520E26EDFCFE7FF0C4A8D
:1060E0000D2A0DBE7DEF30F00D5009E1080E0C5C5D
:1060F000D8A07DEF30F07FEF30F061EF30F0085046
:1061000012000F0EC1129292000E896E000E936E55
:10611000000E8A6E0D0E5F6E2D0E5E6ED80EE82E8E
:10612000FED75E2EFCD75F2EFAD7F0EC28F0070ED4
:106130005F6E170E5E6E6A0EE82EFED75E2EFCD7DF
:106140005F2EFAD700D0C50E046E000E056E68EC07
:106150002FF00009D8A4AFEF30F0B1EF30F0C0EF6E
:1061600030F04EEC27F0100E5F6E390E5E6E0E0EA4
:10617000E82EFED75E2EFCD75F2EFAD7D2EF31F095
:106180007FEC28F0C50E046E000E056ED9EC25F0EC
:10619000440E83EC26F03D0E5F6EE10E5E6E400E07
:1061A000E82EFED75E2EFCD75F2EFAD77FEC28F0C4
:1061B000C50E046E000E056ED9EC25F0BE0E83EC04
:1061C00026F0000E0001DF6FCD0EDF25D96EDA6AF2
:1061D000000EDA2227EC26F0DF6EBB0E0001926F74
:1061E000000E936F120E946F200E956FCD0EDF256B
:1061F000D96EDA6A000EDA22DF505E6E5E50966F5C
:10620000976BC2EC27F00001DF2B080EDF650BEF68
:1062100031F00DEF31F0E4EF30F0CD51CEC05EF053
:106220005F6A5EC05FF05E6A5E10E06F5F50E16FB4
:10623000DD51D8B41EEF31F020EF31F04CEF31F0EA
:10624000E0C05EF0E1C05FF0D8905E365F36D89077
:106250005E365F36D8905E365F365EC0E0F05FC077
:10626000E1F0100ED419D8A438EF31F03AEF31F044
:106270007FEF31F0F00EE0155E6EFF0EE1155F6E00
:10628000D3515E5E000E5F5A0C0E5E24E06F000E6E
:106290005F20E16F7FEF31F0D151600BDE6FDE5197
:1062A000D8A455EF31F057EF31F05FEF31F0F80E31
:1062B000E015E06FFF0EE115E16F7FEF31F0200E8A
:1062C000DE19D8A466EF31F068EF31F070EF31F0ED
:1062D000FC0EE015E06FFF0EE115E16F7FEF31F08E
:1062E000400EDE19D8A477EF31F079EF31F07FEF6F
:1062F00031F0FE0EE015E06FFF0EE115E16FE0C03A
:1063000001F0E1C002F0000E02BEFF0E036E046E4B
:10631000010E9DEC2CF001C00FF002C010F003C084
:1063200011F004C012F0000E136E000E146E800EF9
:10633000156E410E166ED4EC31F00FC0D9F010C0BE
:10634000DAF011C0DBF012C0DCF0A70E0001926F92
:10635000000E936F050E946F200E956FD9C096F0C6
:10636000DAC097F0DBC098F0DCC099F0C2EC27F0FF
:1063700087EC25F0010E046E010E19EC28F0A70E33
:10638000056E000E066E63EC26F0B70E5F6EA10E72
:106390005E6EC40EE82EFED75E2EFCD75F2EFAD7B7
:1063A000A3EF30F000EF10F01250800B1F6E125070
:1063B0001224266E11AEDFEF31F0E1EF31F0E2EFA3
:1063C00031F026802650D8B4E8EF31F0EAEF31F012
:1063D000FFEF31F02628D8A4F0EF31F0F2EF31F0E2
:1063E000FAEF31F0000E0F6E000E106E000E116EFF
:1063F000000E126E118E000E126E07EF32F0000EBC
:106400000F6E000E106E000E116E000E126E165002
:10641000800B1F1A16501624276E15AE12EF32F09D
:1064200014EF32F015EF32F027802750D8B41BEF6D
:1064300032F01DEF32F032EF32F02728D8A423EFEC
:1064400032F025EF32F02DEF32F0000E136E000E19
:10645000146E000E156E000E166E158E000E166E62
:106460003AEF32F0000E136E000E146E000E156E31
:10647000000E166E1350141015101610D8A443EF0A
:1064800032F045EF32F05DEF32F0000E0F6E000E8D
:10649000106E000E116E000E126E800E11127F0E25
:1064A00012121F5012120FC00FF010C010F011C0C6
:1064B00011F012C012F0A0EF33F02650D8A463EF11
:1064C00032F065EF32F06FEF32F0000E0F6E000E1B
:1064D000106E000E116E000E126EA0EF33F02750FA
:1064E00026C017F0186A175E000E185A7F0E172480
:1064F000206E000E1820216E0FC01BF010C01CF083
:1065000011C01DF012C01EF0000E0F6E000E106EB6
:10651000000E116E000E126E000E226E000E236E23
:10652000000E246E000E256E000E276ED0EF32F0A6
:106530002750D8B49EEF32F0A0EF32F0B7EF32F030
:10654000D8901B361C361D361E36D8900F361036A6
:106550001136123625AEAFEF32F0B1EF32F0B2EFB6
:1065600032F00F80D8902236233624362536135049
:106570001B5C14501C5815501D5816501E58D8A09E
:10658000C4EF32F0C6EF32F0CFEF32F0258C13506B
:106590001B5E14501C5A15501D5A16501E5A272A9D
:1065A000190E2764D6EF32F0D8EF32F098EF32F0C0
:1065B0001B501C101D101E10D8B4E1EF32F0E3EF99
:1065C00032F0FBEF32F02280FBEF32F0D8900F3642
:1065D00010361136123625AEF0EF32F0F2EF32F00F
:1065E000F3EF32F00F80D89022362336243625364A
:1065F0002006D8A0210611AE00EF33F002EF33F0F1
:10660000E6EF32F0000E276E25AE09EF33F00BEF08
:1066100033F02FEF33F0FF0E2214176EFF0E23140A
:10662000186EFF0E2414196E7F0E25141A6E175063
:10663000181019101A10D8B420EF33F022EF33F0ED
:1066400026EF33F0010E276E2FEF33F00FA02BEF64
:1066500033F02DEF33F02FEF33F022EF33F02750EC
:10666000D8B435EF33F037EF33F05BEF33F0010E92
:106670000F26000E10221122122212A042EF33F038
:1066800044EF33F05BEF33F00FC017F010C018F099
:1066900011C019F012C01AF01A341A321932183215
:1066A000173217C00FF018C010F019C011F01AC03F
:1066B00012F0204A212A21BE66EF33F0215008E172
:1066C0002028D8A066EF33F068EF33F073EF33F093
:1066D000000E216E2068000E0F6E000E106E000E70
:1066E000116E000E126E21BE80EF33F0215006E1D4
:1066F0002004D8B07EEF33F080EF33F08EEF33F02C
:10670000000E216E000E206E000E0F6E000E106E39
:10671000000E116E000E126E000E1F6E20C026F0CD
:1067200026A095EF33F097EF33F09AEF33F0118E08
:106730009BEF33F0119ED8902630126E51EF32F05D
:1067400012000450800B0D6E04500424136E03AE2F
:10675000ACEF33F0AEEF33F0AFEF33F01380135004
:10676000D8B4B5EF33F0B7EF33F0CAEF33F01328F6
:10677000D8A4BDEF33F0BFEF33F0C7EF33F0000E16
:10678000016E000E026E000E036E000E046E038E8C
:10679000D2EF33F0000E016E000E026E000E036E9B
:1067A000000E046E0850800B0D1A08500824126E5B
:1067B00007AEDDEF33F0DFEF33F0E0EF33F01280C0
:1067C0001250D8B4E6EF33F0E8EF33F0FBEF33F0DC
:1067D0001228D8A4EEEF33F0F0EF33F0F8EF33F0F7
:1067E000000E056E000E066E000E076E000E086E9F
:1067F000078E03EF34F0000E056E000E066E000EDD
:10680000076E000E086E1250D8B409EF34F00BEF8B
:1068100034F013EF34F01350D8A411EF34F013EF29
:1068200034F01DEF34F0000E016E000E026E000E0B
:10683000036E000E046EB5EF35F007500102F3CF82
:1068400018F0F4CF19F018500E6E0F6A106A116A22
:106850001950146E156A166A176A06500202F3CFB1
:1068600018F0F4CF19F018500E26000E0F22102247
:10687000112219501426000E152216221722055037
:106880000302F3CF18F0F4CF19F018500E26000EC3
:106890000F221022112219501426000E1522162242
:1068A000172210C011F00FC010F00EC00FF00E6ACA
:1068B00005500202F3CF18F0F4CF19F018500E264D
:1068C00019500F22000E1022000E11220650010254
:1068D000F3CF18F0F4CF19F018500E2619500F22EC
:1068E000000E1022000E112210C011F00FC010F087
:1068F0000EC00FF00E6A05500102F3CF18F0F4CF6E
:1069000019F018500E2619500F22000E1022000EFA
:10691000112207500202F3CF18F0F4CF19F01850EB
:10692000142619501522000E1622000E17220650AA
:106930000302F3CF18F0F4CF19F0185014261950B1
:106940001522000E1622000E172207500302F3CF65
:1069500018F0F4CF19F01850096E19500A6E0B6A2E
:106960000C6A0BC00CF00AC00BF009C00AF0096AEF
:10697000095014260A5015220B5016220C501722CB
:106980000EC009F00FC00AF010C00BF011C00CF0DF
:10699000190ED0EF34F0D8900C320B320A32093293
:1069A000E82ECBEF34F0095014260A5015220B5074
:1069B00016220C50172210C011F00FC010F00EC09C
:1069C0000FF00E6A125013C009F00A6A0926000E71
:1069D0000A22820E0924186EFF0E0A20196E06EF95
:1069E00035F0D890143615361636173611AEFBEF43
:1069F00034F0FDEF34F0FEEF34F01480D8900E3612
:106A00000F36103611361806D8A0190616AE0BEF41
:106A100035F00DEF35F0F1EF34F0000E126E11AEDF
:106A200014EF35F016EF35F03AEF35F0FF0E0E1497
:106A3000096EFF0E0F140A6EFF0E10140B6E7F0E00
:106A400011140C6E09500A100B100C10D8B42BEF57
:106A500035F02DEF35F031EF35F0010E126E3AEFD3
:106A600035F014A036EF35F038EF35F03AEF35F069
:106A70002DEF35F01250D8B440EF35F042EF35F03D
:106A800066EF35F0010E1426000E1522162217228D
:106A900017A04DEF35F04FEF35F066EF35F014C02D
:106AA00009F015C00AF016C00BF017C00CF00C343A
:106AB0000C320B320A32093209C014F00AC015F048
:106AC0000BC016F00CC017F0184A192A19BE71EF46
:106AD00035F0195008E11828D8A071EF35F073EFA0
:106AE00035F07DEF35F0000E146E000E156E800E41
:106AF000166E7F0E176EABEF35F019BE8AEF35F0CC
:106B0000195006E11804D8B088EF35F08AEF35F057
:106B100096EF35F0000E146E000E156E000E166E18
:106B2000000E176E000E0D6EABEF35F018C013F0AF
:106B3000FF0E1416FF0E15167F0E1616000E1716F2
:106B400013A0A5EF35F0A7EF35F0A8EF35F0168EBE
:106B5000D8901330176E0D50171214C001F015C0E5
:106B600002F016C003F017C004F0120047C0D9FFAE
:106B700048C0DAFFDECFF6FFDDCFF7FF0800F550A3
:106B8000250AD8A4C6EF35F0C8EF35F0D9EF37F0B5
:106B900047C0D9FF48C0DAFFDE2A000EDD22000E12
:106BA0000001F36F000EF26FF2C0F6F0F469F569C0
:106BB000000E506E000E4F6E09EF36F00001F683A6
:106BC00047C0D9FF48C0DAFFDE2A000EDD2209EFF8
:106BD00036F0000E506E010E4F6E09EF36F047C0D2
:106BE000D9FF48C0DAFFDECFF6FFDDCFF7FF0800A0
:106BF000F5504B6E4C6A4C50000AD8B402EF36F098
:106C0000E9EF35F04B50300AD8B4DEEF35F0E9EF5C
:106C100035F04F505010D8B410EF36F012EF36F078
:106C2000EFEF35F047C0D9FF48C0DAFFDECFF6FFFF
:106C3000DDCFF7FF0800F5502E0AD8A422EF36F07A
:106C400024EF36F092EF36F0000E0001F56F000EE3
:106C5000F46F47C0D9FF48C0DAFFDE2A000EDD22FC
:106C600047C0D9FF48C0DAFFDECFF6FFDDCFF7FF20
:106C70000800F5502A0AD8A440EF36F042EF36F06B
:106C80005FEF36F047C0D9FF48C0DAFFDE2A000EBA
:106C9000DD2249C0D9FF4AC0DAFFDFCF4BF0020E38
:106CA000DE26DFCF4CF0000EDD224BC0D9FF4CC0FA
:106CB000DAFFDECFF4F0DDCFF5F092EF36F047C02B
:106CC000D9FF48C0DAFFDECF07F0DDCF08F0F8ECDF
:106CD0002BF007C0F4F008C0F5F076EF36F047C0AF
:106CE000D9FF48C0DAFFDE2A000EDD2247C0D9FFF7
:106CF00048C0DAFFDECFF6FFDDCFF7FF0800F5CFA3
:106D00004BF0D00E4B244C6E4D6AFF0E4D224D5071
:106D100009E10A0E4C5CD8A090EF36F092EF36F005
:106D20006FEF36F047C0D9FF48C0DAFFDECF5AF028
:106D3000DDCF5BF05AC0F6FF5BC0F7FF0800F550EF
:106D4000780AD8A4A6EF36F0A8EF36F004EF37F0B3
:106D500049C0D9FF4AC0DAFFDFCF4BF0020EDE2672
:106D6000DFCF4CF0000EDD224BC0D9FF4CC0DAFF64
:106D7000DECF4DF0DDCF4EF04DC051F04EC052F0A1
:106D8000536A546A556A566A576A586A010E5A24F9
:106D90004B6E000E5B204C6E47C0D9FF48C0DAFF37
:106DA0004BC0DEFF4CC0DDFFEEEF36F045C01CF0FF
:106DB00046C01DF051C01EF052C01FF053C020F05D
:106DC00054C021F055C022F056C023F057C024F023
:106DD00058C025F077EC2DF0EDEF37F05AC0F6FFF4
:106DE0005BC0F7FF0800F5504B6E4C6A4C50000A30
:106DF000D8B4FDEF36F004EF37F04B50780AD8B432
:106E0000D6EF36F004EF37F047C0D9FF48C0DAFFBD
:106E1000DECF5AF0DDCF5BF05AC0F6FF5BC0F7FF64
:106E20000800F5CF59F021EF37F05A4A5B2A3AEFC4
:106E300037F06C0E596E3AEF37F0000E596E3AEF9C
:106E400037F059504B6E4C6A4C50000AD8B42BEFB7
:106E500037F01DEF37F04B504C0AD8B415EF37F030
:106E60002A0AD8B419EF37F00A0AD8B415EF37F068
:106E70001DEF37F05AC0F6FF5BC0F7FF0800F55072
:106E8000660AD8A446EF37F048EF37F0D0EF37F076
:106E90007EEF37F049C0D9FF4AC0DAFFDFCF4BF0B1
:106EA000040EDE26DFCF4CF0000EDD224BC0D9FFF2
:106EB0004CC0DAFFDECF51F0DECF52F0DECF53F020
:106EC000DECF54F093EF37F049C0D9FF4AC0DAFF64
:106ED000DFCF4BF0040EDE26DFCF4CF0000EDD22BC
:106EE0004BC0D9FF4CC0DAFFDECF51F0DECF52F0FD
:106EF000DECF53F0DECF54F093EF37F059504B6EA6
:106F00004C6A4C50000AD8B488EF37F093EF37F052
:106F10004B504C0AD8B464EF37F0200AD8B44AEF8B
:106F200037F093EF37F0010E5A244B6E000E5B20C2
:106F30004C6E47C0D9FF48C0DAFF4BC0DEFF4CC0E3
:106F4000DDFFBAEF37F045C03CF046C03DF051C020
:106F50003EF052C03FF053C040F054C041F05AC020
:106F6000F6FF5BC0F7FF0800F5CF42F04EEC3AF0B9
:106F7000EDEF37F05AC0F6FF5BC0F7FF0800F550A1
:106F80004B6E4C6A4C50000AD8B4C9EF37F0D0EFC2
:106F900037F04B50660AD8B4A3EF37F0D0EF37F094
:106FA00047C0D9FF48C0DAFFDE2A000EDD22EDEF30
:106FB00037F047C0D9FF48C0DAFFDECFF6FFDDCF9C
:106FC000F7FF0800F550016E026A45C003F046C0A5
:106FD00004F08FEC29F0D0EF37F012000450800B52
:106FE0000D6E045004240F6E03AEF9EF37F0FBEF83
:106FF00037F0FCEF37F00F800F50D8B402EF38F0C5
:1070000004EF38F019EF38F00F28D8A40AEF38F061
:107010000CEF38F014EF38F0000E016E000E026E27
:10702000000E036E000E046E038E000E046E21EF40
:1070300038F0000E016E000E026E000E036E000EA0
:10704000046E0850800B0E6E0D500E18D8B42BEF46
:1070500038F02DEF38F02EEF38F00D8C0850082462
:107060000E6E07AE36EF38F038EF38F039EF38F003
:107070000E800E50D8B43FEF38F041EF38F056EFA5
:1070800038F00E28D8A447EF38F049EF38F051EF28
:1070900038F0000E056E000E066E000E076E000E34
:1070A000086E078E000E086E5EEF38F0000E056E5B
:1070B000000E066E000E076E000E086E0F500E5C7E
:1070C000D8B065EF38F067EF38F08EEF38F00DACE0
:1070D0006CEF38F06EEF38F070EF38F0800E0D1A6C
:1070E0000FC010F00EC00FF010C00EF001C010F075
:1070F00005C001F010C005F002C010F006C002F09B
:1071000010C006F003C010F007C003F010C007F075
:1071100004C010F008C004F010C008F0000E106E9B
:107120000F500EC009F00A6A095E000E0A5A0ABE24
:10713000A3EF38F00A5009E11A0E095CD8A0A3EFBA
:1071400038F0A5EF38F0DCEF38F0015002100310F2
:107150000410D8A4AEEF38F0B1EF38F0010EB2EF62
:1071600038F0000E106E000E016E000E026E000E62
:10717000036E000E046E0EC00FF0E5EF38F010A0A5
:10718000C4EF38F0C6EF38F0CCEF38F0D8901030BC
:107190000109106ECEEF38F0D890103201A0D3EF75
:1071A00038F0D5EF38F0D6EF38F0108E04340432D2
:1071B0000332023201320F2A0E500F5CD8A0E3EFE7
:1071C00038F0E5EF38F0BFEF38F00DBCEAEF38F0FB
:1071D000ECEF38F02CEF39F00F50D8A4F2EF38F084
:1071E000F4EF38F0FEEF38F0000E016E000E026E84
:1071F000000E036E000E046E4DEF3AF005500126AE
:1072000006500222075003220850042204A00BEF6C
:1072100039F00DEF39F0B9EF39F010A012EF39F075
:1072200014EF39F01AEF39F0D89010300109106ED0
:107230001CEF39F0D890103201A021EF39F023EF84
:1072400039F024EF39F0108E043404320332023264
:1072500001320F2AB9EF39F00550015C065002588F
:10726000075003580450800A096E0850800A0958D4
:10727000D8B03DEF39F03FEF39F06AEF39F0015007
:10728000055C096E025006580A6E035007580B6ED3
:10729000045008580C6EFF0E0924016EFF0E0A20E0
:1072A000026EFF0E0B20036EFF0E0C20046E800E8C
:1072B0000D1A106C1050D8A460EF39F062EF39F05D
:1072C00072EF39F0010E0126000E02220322042281
:1072D00072EF39F00550015E0650025A0750035A0A
:1072E0000850045A0150021003100410D8A47BEF78
:1072F00039F07DEF39F0B2EF39F01050D8A483EFB8
:1073000039F085EF39F0B2EF39F0000E016E000E62
:10731000026E000E036E000E046E4DEF3AF0D89030
:10732000013602360336043610AE99EF39F09BEF82
:1073300039F09CEF39F0018010A0A1EF39F0A3EFF4
:1073400039F0A7EF39F0D8801036A9EF39F0D8908E
:1073500010360F50D8B4AFEF39F0B1EF39F0B2EFCB
:1073600039F00F0603AEB7EF39F0B9EF39F08FEF10
:1073700039F0000E0E6E10AEC0EF39F0C2EF39F0EA
:10738000DAEF39F010C009F07F0E0916D8B4CBEF50
:1073900039F0CDEF39F0D1EF39F0010E0E6EDAEFA2
:1073A00039F001A0D6EF39F0D8EF39F0DAEF39F043
:1073B000CDEF39F00E50D8B4E0EF39F0E2EF39F00C
:1073C0000DEF3AF0010E0126000E022203220422E4
:1073D00004A0EDEF39F0EFEF39F00DEF3AF001C016
:1073E00009F002C00AF003C00BF004C00CF00C342A
:1073F0000C320B320A32093209C001F00AC002F025
:107400000BC003F00CC004F00F28D8B40AEF3AF018
:107410000CEF3AF00DEF3AF00F2A0F28D8B413EF23
:107420003AF015EF3AF01DEF3AF00F50D8A41BEFE9
:107430003AF01DEF3AF02FEF3AF0000E016E000E19
:10744000026E000E036E000E046E0F50D8A42BEFD8
:107450003AF02DEF3AF02FEF3AF0000E0D6E0FA03C
:1074600034EF3AF036EF3AF039EF3AF0038E3AEF74
:107470003AF0039ED8900F30046E0DAE42EF3AF012
:1074800044EF3AF045EF3AF0048E01C001F002C03B
:1074900002F003C003F004C004F01200000E00016B
:1074A000816F3EC082F03FC083F040C084F041C095
:1074B00085F085BF60EF3AF05EEF3AF074EF3AF096
:1074C000010E816F82C001F083C002F084C003F01E
:1074D00085C004F00BEC26F001C082F002C083F0FE
:1074E00003C084F004C085F0000E0001876F000E19
:1074F000866FF2C071F0F3C072F08151D8B483EF9F
:107500003AF085EF3AF099EF3AF08151D8A48BEF39
:107510003AF08DEF3AF093EF3AF0000E676F2B0ED2
:10752000666F97EF3AF0000E676F2D0E666F66C0BC
:1075300081F082C001F083C002F084C003F085C0F6
:1075400004F0F4EC29F001040210D8A4AAEF3AF0F8
:10755000ACEF3AF0DFEF3AF000018151D8B4B3EF6D
:107560003AF0B5EF3AF0BEEF3AF081C000F17107A2
:10757000D8A07207000E876F010E866F000E862559
:10758000016E010E8721026E170E036E200E046E2F
:10759000A3EC26F00001FD0E7127FF0E72233CC004
:1075A00011F03DC012F0000E136E010E146E71C08A
:1075B00015F072C016F0B3EC28F07FEF3FF082C0F8
:1075C00001F083C002F084C003F085C004F0F4EC45
:1075D00029F001500210D8A4F0EF3AF0F2EF3AF09F
:1075E00012EF3BF000018151D8B4F9EF3AF0FBEF14
:1075F0003AF004EF3BF081C000F17107D8A07207A8
:10760000000E876F010E866F000E8625016E010E3B
:107610008721026E1B0E036E200E046EA3EC26F073
:10762000CAEF3AF0000E0001886F000E896F800EDD
:107630008A6F3F0E8B6F000E706F000E6F6F82C0EF
:1076400001F083C002F084C003F085C004F0000E96
:10765000056E000E066E000E076E000E086E3AEC08
:1076600029F0D8B036EF3BF038EF3BF017EF3CF0A5
:1076700045EF3BF073C088F074C089F075C08AF0A4
:1076800076C08BF000016F4B702B88C001F089C071
:1076900002F08AC003F08BC004F0000E056E000EED
:1076A000066E200E076E410E086EA1EC33F001C08D
:1076B00073F002C074F003C075F004C076F00001EE
:1076C0007351825D016E74518359026E75518459F4
:1076D000036E76518559046E4CEC28F004BE7CEFA5
:1076E0003BF004500310021009E1020E015CD8A027
:1076F0007CEF3BF07EEF3BF03AEF3BF073C01AF0CB
:1077000074C01BF075C01CF076C01DF082C01EF066
:1077100083C01FF084C020F085C021F0F3EC2AF074
:10772000D8A095EF3BF097EF3BF03AEF3BF000012C
:107730008851825D016E89518359026E8A51845944
:10774000036E8B518559046E4CEC28F004BEB6EFE5
:107750003BF004500310021007E1020E015CD8B0A8
:10776000B4EF3BF0B6EF3BF0FEEF3BF088C082F0A9
:1077700089C083F08AC084F08BC085F017EF3CF09D
:1077800088C00FF089C010F08AC011F08BC012F0D1
:10779000000E136E000E146E200E156E410E166E46
:1077A000D4EC31F00FC088F010C089F011C08AF01D
:1077B00012C08BF000016F07D8A070078851825D5E
:1077C000016E89518359026E8A518459036E8B511F
:1077D0008559046E4CEC28F004BEFCEF3BF00450DD
:1077E0000310021007E1020E015CD8B0FAEF3BF083
:1077F000FCEF3BF0FEEF3BF0B6EF3BF082C01AF03F
:1078000083C01BF084C01CF085C01DF088C01EF032
:1078100089C01FF08AC020F08BC021F0F3EC2AF061
:10782000D8A015EF3CF017EF3CF0C0EF3BF042C0A2
:1078300069F069C06AF00001F5BF21EF3CF023EF69
:107840003CF029EF3CF0F4C062F0F5C063F02DEF9E
:107850003CF0000E636F060E626F62C06DF063C095
:107860006EF06D4B6E2B660E6A19D8A43AEF3CF0A1
:107870003CEF3CF05CEF3CF070BF43EF3CF041EF7D
:107880003CF04FEF3CF0000E886F000E896F800EC9
:107890008A6F3F0E8B6F000E706F000E6F6F670E5A
:1078A0006919D8B456EF3CF058EF3CF05CEF3CF06F
:1078B0006F516D2770516E23000E806F000E7F6F29
:1078C00082C077F083C078F084C079F085C07AF008
:1078D00088C073F089C074F08AC075F08BC076F0F0
:1078E000EDEF3CF077C00FF078C010F079C011F0E8
:1078F0007AC012F088C013F089C014F08AC015F065
:107900008BC016F0D4EC31F00FC028F010C029F075
:1079100011C02AF012C02BF05FEC2EF028C07BF0D3
:1079200029C07CF02AC07DF02BC07EF07BC001F026
:107930007CC002F07DC003F07EC004F075EC2BF03B
:1079400001C06BF002C06CF077C01AF078C01BF079
:1079500079C01CF07AC01DF07BC005F07CC006F039
:107960007DC007F07EC008F088C001F089C002F039
:107970008AC003F08BC004F0A1EC33F001C01EF00C
:1079800002C01FF003C020F004C021F008EC27F073
:107990001AC077F01BC078F01CC079F01DC07AF0D7
:1079A00088C00FF089C010F08AC011F08BC012F0AF
:1079B000000E136E000E146E200E156E410E166E24
:1079C000D4EC31F00FC088F010C089F011C08AF0FB
:1079D00012C08BF000017F4B802B6D517F5D805179
:1079E000800A436E6E51800A4358D8A0FAEF3CF0EB
:1079F000FCEF3CF072EF3CF088C001F089C002F06F
:107A00008AC003F08BC004F0000E056E000E066EF7
:107A1000A00E076E400E086EA1EC33F001C07BF0A3
:107A200002C07CF003C07DF004C07EF077C01AF085
:107A300078C01BF079C01CF07AC01DF07BC01EF02E
:107A40007CC01FF07DC020F07EC021F0F3EC2AF056
:107A5000D8B02DEF3DF02FEF3DF03AEF3DF0000EA6
:107A600000017B6F000E7C6F000E7D6F000E7E6F3D
:107A700063EF3DF077C001F078C002F079C003F009
:107A80007AC004F07BC005F07CC006F07DC007F032
:107A90007EC008F03AEC29F0D8A051EF3DF053EF4A
:107AA0003DF063EF3DF000016BB159EF3DF05BEF4E
:107AB0003DF063EF3DF0000E7B6F000E7C6F000E1B
:107AC0007D6F000E7E6F82C001F083C002F084C023
:107AD00003F085C004F07BC005F07CC006F07DC0DB
:107AE00007F07EC008F0EEEC37F001C077F002C07E
:107AF00078F003C079F004C07AF077C01AF078C04B
:107B00001BF079C01CF07AC01DF0000E056E000E4F
:107B1000066E200E076E410E086E73C001F074C031
:107B200002F075C003F076C004F0A1EC33F001C0A0
:107B30001EF002C01FF003C020F004C021F0F3ECDF
:107B40002AF0D8A0A6EF3DF0A8EF3DF0D1EF3DF030
:107B500000016F4B702B73C001F074C002F075C050
:107B600003F076C004F0000E056E000E066E200EC7
:107B7000076E410E086EA1EC33F001C073F002C035
:107B800074F003C075F004C076F0660E00016A1947
:107B9000D8A4CDEF3DF0CFEF3DF0D1EF3DF06D4BF0
:107BA0006E2B73C088F074C089F075C08AF076C0FF
:107BB0008BF06FC060F070C061F0000E0001686F64
:107BC000000E656F000E646F000E806F000E7F6FF9
:107BD000CFEF3EF077C00FF078C010F079C011F011
:107BE0007AC012F088C013F089C014F08AC015F072
:107BF0008BC016F0D4EC31F00FC028F010C029F083
:107C000011C02AF012C02BF05FEC2EF028C07BF0E0
:107C100029C07CF02AC07DF02BC07EF07BC001F033
:107C20007CC002F07DC003F07EC004F075EC2BF048
:107C300002BE26EF3EF0025007E10A0E015CD8B00A
:107C400024EF3EF026EF3EF036EF3EF07BC001F031
:107C50007CC002F07DC003F07EC004F075EC2BF018
:107C600001C06BF002C06CF03BEF3EF0000E000173
:107C70006C6F090E6B6F00016851D8A442EF3EF0A3
:107C800044EF3EF06CEF3EF061BF4BEF3EF049EF4A
:107C90003EF06CEF3EF0000E8625D96E010E872176
:107CA000DA6E2E0EDF6E864B872B7107D8A0720717
:107CB000010E686F6CEF3EF0000E8625D96E010E46
:107CC0008721DA6E300EDF6E864B872B7107D8A0C6
:107CD00072076407D8A0650764516511D8A473EFD3
:107CE0003EF075EF3EF05CEF3EF0000E8625D96E5B
:107CF000010E8721DA6E6B51300FDF6E864B872BBA
:107D00007107D8A0720777C01AF078C01BF079C04D
:107D10001CF07AC01DF07BC005F07CC006F07DC071
:107D200007F07EC008F088C001F089C002F08AC068
:107D300003F08BC004F0A1EC33F001C01EF002C0D0
:107D40001FF003C020F004C021F008EC27F01AC097
:107D500077F01BC078F01CC079F01DC07AF088C0A5
:107D60000FF089C010F08AC011F08BC012F0000E25
:107D7000136E000E146E200E156E410E166ED4ECAE
:107D800031F00FC088F010C089F011C08AF012C025
:107D90008BF000016007D8A061077F4B802B6D51ED
:107DA0007F5D8051800A436E6E51800A4358D8B07F
:107DB000DCEF3EF0DEEF3EF0ECEF3EF087BFEAEFA7
:107DC0003EF0875109E14B0E865DD8A0EAEF3EF008
:107DD000ECEF3EF0EAEF3DF0000E806F4F0E7F6F4C
:107DE000000E7F25D96E010E8021DA6E000EDF6E47
:107DF000000E436E010E446E8651435E8751445A15
:107E00007F514324016E80514420026E000E036EA8
:107E1000010E046E86C005F087C006F072EC27F0F4
:107E2000000186517F5D866F87518059876F815130
:107E3000D8A41DEF3FF020EF3FF0010E21EF3FF0FF
:107E4000000E7F6F806BF6A328EF3FF02AEF3FF024
:107E500058EF3FF03AEF3FF08607D8A08707000EB3
:107E60008625D96E010E8721DA6E300EDF6E71071E
:107E7000D8A0720771517F5D8051800A436E7251A4
:107E8000800A4358D8B047EF3FF049EF3FF058EF32
:107E90003FF086517F5D8051800A436E8751800A92
:107EA0004358D8A056EF3FF058EF3FF02CEF3FF08B
:107EB0008151D8B45EEF3FF060EF3FF06BEF3FF0E1
:107EC0008607D8A08707000E8625D96E010E872168
:107ED000DA6E81C0DFFF7F51715F8051725B3CC001
:107EE00011F03DC012F0000E8625136E010E8721A1
:107EF000146E71C015F072C016F0B3EC28F01200C9
:020000040030CA
:08000000000E181EFF8181FFB4
:020000040020DA
:080000000C0E050B00000000CE
:00000001FF
